{
  "contractName": "Donations",
  "abi": [
    {
      "inputs": [],
      "stateMutability": "nonpayable",
      "type": "constructor"
    },
    {
      "inputs": [
        {
          "internalType": "uint256",
          "name": "",
          "type": "uint256"
        }
      ],
      "name": "campaigns",
      "outputs": [
        {
          "internalType": "string",
          "name": "description",
          "type": "string"
        },
        {
          "internalType": "uint256",
          "name": "id",
          "type": "uint256"
        },
        {
          "internalType": "uint256",
          "name": "fundLimit",
          "type": "uint256"
        },
        {
          "internalType": "uint256",
          "name": "totalFundsRaised",
          "type": "uint256"
        },
        {
          "internalType": "address payable",
          "name": "vendor",
          "type": "address"
        },
        {
          "internalType": "bytes32",
          "name": "donationsHashed",
          "type": "bytes32"
        },
        {
          "internalType": "enum Donations.State",
          "name": "state",
          "type": "uint8"
        }
      ],
      "stateMutability": "view",
      "type": "function",
      "constant": true
    },
    {
      "inputs": [],
      "name": "counter",
      "outputs": [
        {
          "internalType": "uint256",
          "name": "",
          "type": "uint256"
        }
      ],
      "stateMutability": "view",
      "type": "function",
      "constant": true
    },
    {
      "inputs": [
        {
          "internalType": "uint256",
          "name": "amountRequired",
          "type": "uint256"
        },
        {
          "internalType": "address payable",
          "name": "vendor",
          "type": "address"
        },
        {
          "internalType": "string",
          "name": "description",
          "type": "string"
        }
      ],
      "name": "createCampaign",
      "outputs": [],
      "stateMutability": "nonpayable",
      "type": "function"
    },
    {
      "inputs": [
        {
          "internalType": "uint256",
          "name": "campaignId",
          "type": "uint256"
        }
      ],
      "name": "donate",
      "outputs": [],
      "stateMutability": "payable",
      "type": "function",
      "payable": true
    }
  ],
  "bytecode": "0x608060405234801561001057600080fd5b506000600181905550610dcd806100286000396000f3fe60806040526004361061003f5760003560e01c8063141961bc1461004457806361bc221a14610087578063b87e1a0c146100b2578063f14faf6f146100db575b600080fd5b34801561005057600080fd5b5061006b6004803603810190610066919061055a565b6100f7565b60405161007e97969594939291906106f7565b60405180910390f35b34801561009357600080fd5b5061009c6101ee565b6040516100a9919061076d565b60405180910390f35b3480156100be57600080fd5b506100d960048036038101906100d491906108e9565b6101f4565b005b6100f560048036038101906100f0919061055a565b6103bf565b005b600060205280600052604060002060009150905080600001805461011a90610987565b80601f016020809104026020016040519081016040528092919081815260200182805461014690610987565b80156101935780601f1061016857610100808354040283529160200191610193565b820191906000526020600020905b81548152906001019060200180831161017657829003601f168201915b5050505050908060010154908060020154908060030154908060040160009054906101000a900473ffffffffffffffffffffffffffffffffffffffff16908060050154908060060160009054906101000a900460ff16905087565b60015481565b6001805461020291906109e7565b600181905550600080600060015481526020019081526020016000209050818160000190816102319190610bc7565b50600154816001018190555083816002018190555060008160030181905550828160040160006101000a81548173ffffffffffffffffffffffffffffffffffffffff021916908373ffffffffffffffffffffffffffffffffffffffff16021790555060008160060160006101000a81548160ff021916908360028111156102bb576102ba610680565b5b0217905550806000806001548152602001908152602001600020600082018160000190816102e99190610caf565b506001820154816001015560028201548160020155600382015481600301556004820160009054906101000a900473ffffffffffffffffffffffffffffffffffffffff168160040160006101000a81548173ffffffffffffffffffffffffffffffffffffffff021916908373ffffffffffffffffffffffffffffffffffffffff160217905550600582015481600501556006820160009054906101000a900460ff168160060160006101000a81548160ff021916908360028111156103b1576103b0610680565b5b021790555090505050505050565b6000806000838152602001908152602001600020905080600201543482600301546103ea91906109e7565b11156103f557600080fd5b6000600281111561040957610408610680565b5b8160060160009054906101000a900460ff16600281111561042d5761042c610680565b5b1461043757600080fd5b3481600301600082825461044b91906109e7565b9250508190555080600201548160030154106104dc578060040160009054906101000a900473ffffffffffffffffffffffffffffffffffffffff1673ffffffffffffffffffffffffffffffffffffffff166108fc82600201549081150290604051600060405180830381858888f193505050501580156104cf573d6000803e3d6000fd5b506104db8160016104e0565b5b5050565b808260060160006101000a81548160ff0219169083600281111561050757610506610680565b5b02179055505050565b6000604051905090565b600080fd5b600080fd5b6000819050919050565b61053781610524565b811461054257600080fd5b50565b6000813590506105548161052e565b92915050565b6000602082840312156105705761056f61051a565b5b600061057e84828501610545565b91505092915050565b600081519050919050565b600082825260208201905092915050565b60005b838110156105c15780820151818401526020810190506105a6565b60008484015250505050565b6000601f19601f8301169050919050565b60006105e982610587565b6105f38185610592565b93506106038185602086016105a3565b61060c816105cd565b840191505092915050565b61062081610524565b82525050565b600073ffffffffffffffffffffffffffffffffffffffff82169050919050565b600061065182610626565b9050919050565b61066181610646565b82525050565b6000819050919050565b61067a81610667565b82525050565b7f4e487b7100000000000000000000000000000000000000000000000000000000600052602160045260246000fd5b600381106106c0576106bf610680565b5b50565b60008190506106d1826106af565b919050565b60006106e1826106c3565b9050919050565b6106f1816106d6565b82525050565b600060e0820190508181036000830152610711818a6105de565b90506107206020830189610617565b61072d6040830188610617565b61073a6060830187610617565b6107476080830186610658565b61075460a0830185610671565b61076160c08301846106e8565b98975050505050505050565b60006020820190506107826000830184610617565b92915050565b61079181610646565b811461079c57600080fd5b50565b6000813590506107ae81610788565b92915050565b600080fd5b600080fd5b7f4e487b7100000000000000000000000000000000000000000000000000000000600052604160045260246000fd5b6107f6826105cd565b810181811067ffffffffffffffff82111715610815576108146107be565b5b80604052505050565b6000610828610510565b905061083482826107ed565b919050565b600067ffffffffffffffff821115610854576108536107be565b5b61085d826105cd565b9050602081019050919050565b82818337600083830152505050565b600061088c61088784610839565b61081e565b9050828152602081018484840111156108a8576108a76107b9565b5b6108b384828561086a565b509392505050565b600082601f8301126108d0576108cf6107b4565b5b81356108e0848260208601610879565b91505092915050565b6000806000606084860312156109025761090161051a565b5b600061091086828701610545565b93505060206109218682870161079f565b925050604084013567ffffffffffffffff8111156109425761094161051f565b5b61094e868287016108bb565b9150509250925092565b7f4e487b7100000000000000000000000000000000000000000000000000000000600052602260045260246000fd5b6000600282049050600182168061099f57607f821691505b6020821081036109b2576109b1610958565b5b50919050565b7f4e487b7100000000000000000000000000000000000000000000000000000000600052601160045260246000fd5b60006109f282610524565b91506109fd83610524565b9250828201905080821115610a1557610a146109b8565b5b92915050565b60008190508160005260206000209050919050565b60006020601f8301049050919050565b600082821b905092915050565b600060088302610a7d7fffffffffffffffffffffffffffffffffffffffffffffffffffffffffffffffff82610a40565b610a878683610a40565b95508019841693508086168417925050509392505050565b6000819050919050565b6000610ac4610abf610aba84610524565b610a9f565b610524565b9050919050565b6000819050919050565b610ade83610aa9565b610af2610aea82610acb565b848454610a4d565b825550505050565b600090565b610b07610afa565b610b12818484610ad5565b505050565b5b81811015610b3657610b2b600082610aff565b600181019050610b18565b5050565b601f821115610b7b57610b4c81610a1b565b610b5584610a30565b81016020851015610b64578190505b610b78610b7085610a30565b830182610b17565b50505b505050565b600082821c905092915050565b6000610b9e60001984600802610b80565b1980831691505092915050565b6000610bb78383610b8d565b9150826002028217905092915050565b610bd082610587565b67ffffffffffffffff811115610be957610be86107be565b5b610bf38254610987565b610bfe828285610b3a565b600060209050601f831160018114610c315760008415610c1f578287015190505b610c298582610bab565b865550610c91565b601f198416610c3f86610a1b565b60005b82811015610c6757848901518255600182019150602085019450602081019050610c42565b86831015610c845784890151610c80601f891682610b8d565b8355505b6001600288020188555050505b505050505050565b600081549050610ca881610987565b9050919050565b818103610cbd575050610d95565b610cc682610c99565b67ffffffffffffffff811115610cdf57610cde6107be565b5b610ce98254610987565b610cf4828285610b3a565b6000601f831160018114610d235760008415610d11578287015490505b610d1b8582610bab565b865550610d8e565b601f198416610d3187610a1b565b9650610d3c86610a1b565b60005b82811015610d6457848901548255600182019150600185019450602081019050610d3f565b86831015610d815784890154610d7d601f891682610b8d565b8355505b6001600288020188555050505b5050505050505b56fea2646970667358221220de0d8b303ae344d91488fc1c64d99221f522940ed3b45373ba20f5c6226857cb64736f6c63430008110033",
  "immutableReferences": {},
  "source": "//SPDX-License-Identifier: UNLICENSED\npragma solidity 0.8.17;\n\ncontract Donations {\n    \n    enum State {Open, Closed, Expired}\n\n    struct Campaign {\n        string description;\n        uint id;\n        uint fundLimit;\n        uint totalFundsRaised;\n        address payable vendor;\n        bytes32 donationsHashed;\n        State state;\n    }\n\n    struct donor{\n        address donorAddress;\n        uint donatedAmount;\n    }\n\n    mapping(uint => Campaign) public campaigns;\n    uint public counter;\n    \n    constructor () {\n        counter = 0;\n    }  \n\n    function createCampaign(uint amountRequired, address payable vendor, string memory description) public {\n        counter = counter + 1;\n        Campaign storage campaign = campaigns[counter];\n        campaign.description = description;\n        campaign.id = counter;\n        campaign.fundLimit = amountRequired;            \n        campaign.totalFundsRaised = 0;\n        campaign.vendor = vendor;\n        campaign.state = State.Open;\n        campaigns[counter] = campaign;\n        \n    }\n\n    function donate(uint campaignId) public payable {\n        // require(campaigns[campaignId] != 0);\n        Campaign storage campaign = campaigns[campaignId];\n        require(campaign.totalFundsRaised + msg.value <= campaign.fundLimit);\n        require(campaign.state == State.Open);\n        \n        // if (campaign.donations[msg.sender] != 0){\n        //     campaign.donations[msg.sender] += msg.value;\n        // }else {\n        //     campaign.donations[msg.sender] = msg.value;\n        //     campaign.donors.push(msg.sender);\n        // }\n        campaign.totalFundsRaised += msg.value;\n\n        if (campaign.totalFundsRaised >= campaign.fundLimit){\n            campaign.vendor.transfer(campaign.fundLimit);\n            closeCampaign(campaign,State.Closed);\n        }\n    }\n\n    // function expireCampaign(uint campaignId) public {\n    //     Campaign storage campaign = campaigns[campaignId];\n\n    //     for (uint i=0;i<campaign.donors.length;i++){\n    //         payable(campaign.donors[i]).transfer(campaign.donations[campaign.donors[i]]);\n    //     }\n\n    //     closeCampaign(campaign, State.Expired);\n    // }\n\n    function closeCampaign(Campaign storage campaign, State state) private {\n        campaign.state = state;\n    }\n\n}\n",
  "sourcePath": "/home/eagle/MS/Courses/Blockchain/BlockchainProject/donation-contract/contracts/Donations.sol",
  "compiler": {
    "name": "solc",
    "version": "0.8.17+commit.8df45f5f.Emscripten.clang"
  },
  "schemaVersion": "3.4.10",
  "updatedAt": "2022-11-03T15:29:14.646Z",
  "networkType": "ethereum",
  "devdoc": {
    "kind": "dev",
    "methods": {},
    "version": 1
  },
  "userdoc": {
    "kind": "user",
    "methods": {},
    "version": 1
  }
}