{
  "contractName": "Donations",
  "abi": [
    {
      "inputs": [
        {
          "internalType": "uint256",
          "name": "total",
          "type": "uint256"
        }
      ],
      "stateMutability": "nonpayable",
      "type": "constructor"
    },
    {
      "anonymous": false,
      "inputs": [
        {
          "indexed": true,
          "internalType": "address",
          "name": "tokenOwner",
          "type": "address"
        },
        {
          "indexed": true,
          "internalType": "address",
          "name": "spender",
          "type": "address"
        },
        {
          "indexed": false,
          "internalType": "uint256",
          "name": "tokens",
          "type": "uint256"
        }
      ],
      "name": "Approval",
      "type": "event"
    },
    {
      "anonymous": false,
      "inputs": [
        {
          "indexed": false,
          "internalType": "uint256",
          "name": "campaignId",
          "type": "uint256"
        },
        {
          "indexed": false,
          "internalType": "uint256",
          "name": "target",
          "type": "uint256"
        },
        {
          "indexed": false,
          "internalType": "uint256",
          "name": "deposit",
          "type": "uint256"
        },
        {
          "indexed": false,
          "internalType": "address",
          "name": "createdBy",
          "type": "address"
        },
        {
          "indexed": false,
          "internalType": "address",
          "name": "vendor",
          "type": "address"
        }
      ],
      "name": "CreateCampaign",
      "type": "event"
    },
    {
      "anonymous": false,
      "inputs": [
        {
          "indexed": false,
          "internalType": "uint256",
          "name": "campaignId",
          "type": "uint256"
        },
        {
          "indexed": false,
          "internalType": "address",
          "name": "from",
          "type": "address"
        },
        {
          "indexed": false,
          "internalType": "uint256",
          "name": "numTokens",
          "type": "uint256"
        }
      ],
      "name": "Donation",
      "type": "event"
    },
    {
      "anonymous": false,
      "inputs": [
        {
          "indexed": true,
          "internalType": "address",
          "name": "from",
          "type": "address"
        },
        {
          "indexed": true,
          "internalType": "address",
          "name": "to",
          "type": "address"
        },
        {
          "indexed": false,
          "internalType": "uint256",
          "name": "tokens",
          "type": "uint256"
        }
      ],
      "name": "Transfer",
      "type": "event"
    },
    {
      "anonymous": false,
      "inputs": [
        {
          "indexed": false,
          "internalType": "uint256",
          "name": "campaignId",
          "type": "uint256"
        },
        {
          "indexed": false,
          "internalType": "enum Donations.Status",
          "name": "status",
          "type": "uint8"
        }
      ],
      "name": "Transition",
      "type": "event"
    },
    {
      "inputs": [
        {
          "internalType": "uint256",
          "name": "",
          "type": "uint256"
        }
      ],
      "name": "campaigns",
      "outputs": [
        {
          "internalType": "uint256",
          "name": "id",
          "type": "uint256"
        },
        {
          "internalType": "uint256",
          "name": "target",
          "type": "uint256"
        },
        {
          "internalType": "uint256",
          "name": "fundsRaised",
          "type": "uint256"
        },
        {
          "internalType": "uint256",
          "name": "deposit",
          "type": "uint256"
        },
        {
          "internalType": "address",
          "name": "createdBy",
          "type": "address"
        },
        {
          "internalType": "address payable",
          "name": "vendor",
          "type": "address"
        },
        {
          "internalType": "uint256",
          "name": "donationsHash",
          "type": "uint256"
        },
        {
          "internalType": "enum Donations.Status",
          "name": "status",
          "type": "uint8"
        }
      ],
      "stateMutability": "view",
      "type": "function",
      "constant": true
    },
    {
      "inputs": [],
      "name": "counter",
      "outputs": [
        {
          "internalType": "uint256",
          "name": "",
          "type": "uint256"
        }
      ],
      "stateMutability": "view",
      "type": "function",
      "constant": true
    },
    {
      "inputs": [],
      "name": "decimals",
      "outputs": [
        {
          "internalType": "uint8",
          "name": "",
          "type": "uint8"
        }
      ],
      "stateMutability": "view",
      "type": "function",
      "constant": true
    },
    {
      "inputs": [],
      "name": "name",
      "outputs": [
        {
          "internalType": "string",
          "name": "",
          "type": "string"
        }
      ],
      "stateMutability": "view",
      "type": "function",
      "constant": true
    },
    {
      "inputs": [],
      "name": "percentToDeposit",
      "outputs": [
        {
          "internalType": "uint256",
          "name": "",
          "type": "uint256"
        }
      ],
      "stateMutability": "view",
      "type": "function",
      "constant": true
    },
    {
      "inputs": [],
      "name": "symbol",
      "outputs": [
        {
          "internalType": "string",
          "name": "",
          "type": "string"
        }
      ],
      "stateMutability": "view",
      "type": "function",
      "constant": true
    },
    {
      "inputs": [],
      "name": "totalSupply",
      "outputs": [
        {
          "internalType": "uint256",
          "name": "",
          "type": "uint256"
        }
      ],
      "stateMutability": "view",
      "type": "function",
      "constant": true
    },
    {
      "inputs": [
        {
          "internalType": "address",
          "name": "tokenOwner",
          "type": "address"
        }
      ],
      "name": "balanceOf",
      "outputs": [
        {
          "internalType": "uint256",
          "name": "",
          "type": "uint256"
        }
      ],
      "stateMutability": "view",
      "type": "function",
      "constant": true
    },
    {
      "inputs": [
        {
          "internalType": "address",
          "name": "receiver",
          "type": "address"
        },
        {
          "internalType": "uint256",
          "name": "numTokens",
          "type": "uint256"
        }
      ],
      "name": "transfer",
      "outputs": [
        {
          "internalType": "bool",
          "name": "",
          "type": "bool"
        }
      ],
      "stateMutability": "nonpayable",
      "type": "function"
    },
    {
      "inputs": [
        {
          "internalType": "address",
          "name": "delegate",
          "type": "address"
        },
        {
          "internalType": "uint256",
          "name": "numTokens",
          "type": "uint256"
        }
      ],
      "name": "approve",
      "outputs": [
        {
          "internalType": "bool",
          "name": "",
          "type": "bool"
        }
      ],
      "stateMutability": "nonpayable",
      "type": "function"
    },
    {
      "inputs": [
        {
          "internalType": "address",
          "name": "owner",
          "type": "address"
        },
        {
          "internalType": "address",
          "name": "delegate",
          "type": "address"
        }
      ],
      "name": "allowance",
      "outputs": [
        {
          "internalType": "uint256",
          "name": "",
          "type": "uint256"
        }
      ],
      "stateMutability": "view",
      "type": "function",
      "constant": true
    },
    {
      "inputs": [
        {
          "internalType": "address",
          "name": "owner",
          "type": "address"
        },
        {
          "internalType": "address",
          "name": "buyer",
          "type": "address"
        },
        {
          "internalType": "uint256",
          "name": "numTokens",
          "type": "uint256"
        }
      ],
      "name": "transferFrom",
      "outputs": [
        {
          "internalType": "bool",
          "name": "",
          "type": "bool"
        }
      ],
      "stateMutability": "nonpayable",
      "type": "function"
    },
    {
      "inputs": [],
      "name": "getBalance",
      "outputs": [],
      "stateMutability": "payable",
      "type": "function",
      "payable": true
    },
    {
      "inputs": [
        {
          "internalType": "address",
          "name": "receiver",
          "type": "address"
        },
        {
          "internalType": "uint256",
          "name": "numTokens",
          "type": "uint256"
        }
      ],
      "name": "transferFromContract",
      "outputs": [],
      "stateMutability": "payable",
      "type": "function",
      "payable": true
    },
    {
      "inputs": [
        {
          "internalType": "uint256",
          "name": "numTokens",
          "type": "uint256"
        }
      ],
      "name": "transferToContract",
      "outputs": [],
      "stateMutability": "payable",
      "type": "function",
      "payable": true
    },
    {
      "inputs": [
        {
          "internalType": "uint256",
          "name": "campaignId",
          "type": "uint256"
        },
        {
          "internalType": "uint256",
          "name": "numTokens",
          "type": "uint256"
        }
      ],
      "name": "donate",
      "outputs": [],
      "stateMutability": "payable",
      "type": "function",
      "payable": true
    },
    {
      "inputs": [
        {
          "internalType": "uint256",
          "name": "amountRequired",
          "type": "uint256"
        },
        {
          "internalType": "address payable",
          "name": "vendor",
          "type": "address"
        }
      ],
      "name": "createCampaign",
      "outputs": [],
      "stateMutability": "payable",
      "type": "function",
      "payable": true
    },
    {
      "inputs": [
        {
          "internalType": "uint256",
          "name": "campaignId",
          "type": "uint256"
        },
        {
          "components": [
            {
              "internalType": "address",
              "name": "donorAddress",
              "type": "address"
            },
            {
              "internalType": "uint256",
              "name": "donatedAmount",
              "type": "uint256"
            }
          ],
          "internalType": "struct Donations.Donor[]",
          "name": "donors",
          "type": "tuple[]"
        }
      ],
      "name": "expireCampaign",
      "outputs": [],
      "stateMutability": "nonpayable",
      "type": "function"
    }
  ],
  "bytecode": "0x60806040523480156200001157600080fd5b5060405162001f9738038062001f978339818101604052810190620000379190620000d2565b6000600481905550806002819055506002546000803073ffffffffffffffffffffffffffffffffffffffff1673ffffffffffffffffffffffffffffffffffffffff168152602001908152602001600020819055505062000104565b600080fd5b6000819050919050565b620000ac8162000097565b8114620000b857600080fd5b50565b600081519050620000cc81620000a1565b92915050565b600060208284031215620000eb57620000ea62000092565b5b6000620000fb84828501620000bb565b91505092915050565b611e8380620001146000396000f3fe6080604052600436106101095760003560e01c8063313ce5671161009557806395d89b411161006457806395d89b411461033e578063a9059cbb14610369578063b03b00f8146103a6578063d555d473146103cf578063dd62ed3e146103eb57610109565b8063313ce5671461028f57806332ba9cce146102ba57806361bc221a146102d657806370a082311461030157610109565b8063141961bc116100dc578063141961bc1461019c57806318160ddd146101e05780631a88f3061461020b5780631be021d21461022757806323b872dd1461025257610109565b806306fdde031461010e578063095ea7b3146101395780630cdd53f61461017657806312065fe014610192575b600080fd5b34801561011a57600080fd5b50610123610428565b604051610130919061163e565b60405180910390f35b34801561014557600080fd5b50610160600480360381019061015b91906116fe565b610461565b60405161016d9190611759565b60405180910390f35b610190600480360381019061018b9190611774565b610553565b005b61019a6106b3565b005b3480156101a857600080fd5b506101c360048036038101906101be91906117b4565b6106c6565b6040516101d7989796959493929190611897565b60405180910390f35b3480156101ec57600080fd5b506101f561075b565b6040516102029190611915565b60405180910390f35b610225600480360381019061022091906116fe565b610765565b005b34801561023357600080fd5b5061023c6108da565b6040516102499190611915565b60405180910390f35b34801561025e57600080fd5b5061027960048036038101906102749190611930565b6108e0565b6040516102869190611759565b60405180910390f35b34801561029b57600080fd5b506102a4610c5b565b6040516102b1919061199f565b60405180910390f35b6102d460048036038101906102cf91906119e6565b610c60565b005b3480156102e257600080fd5b506102eb610f66565b6040516102f89190611915565b60405180910390f35b34801561030d57600080fd5b5061032860048036038101906103239190611a26565b610f6c565b6040516103359190611915565b60405180910390f35b34801561034a57600080fd5b50610353610fb4565b604051610360919061163e565b60405180910390f35b34801561037557600080fd5b50610390600480360381019061038b91906116fe565b610fed565b60405161039d9190611759565b60405180910390f35b3480156103b257600080fd5b506103cd60048036038101906103c89190611ab8565b6111cf565b005b6103e960048036038101906103e491906117b4565b6112f3565b005b3480156103f757600080fd5b50610412600480360381019061040d9190611b18565b611467565b60405161041f9190611915565b60405180910390f35b6040518060400160405280600a81526020017f446f6e617465436f696e0000000000000000000000000000000000000000000081525081565b600081600160003373ffffffffffffffffffffffffffffffffffffffff1673ffffffffffffffffffffffffffffffffffffffff16815260200190815260200160002060008573ffffffffffffffffffffffffffffffffffffffff1673ffffffffffffffffffffffffffffffffffffffff168152602001908152602001600020819055508273ffffffffffffffffffffffffffffffffffffffff163373ffffffffffffffffffffffffffffffffffffffff167f8c5be1e5ebec7d5bd14f71427d1e84f3dd0314c0f7b2291e5b200ac8c7c3b925846040516105419190611915565b60405180910390a36001905092915050565b6000600360008481526020019081526020016000209050806001015482826002015461057f9190611b87565b111561058a57600080fd5b8181600201600082825461059e9190611b87565b925050819055506105ae826112f3565b80600601546001836105c09190611b87565b336040516020016105d393929190611c24565b6040516020818303038152906040528051906020012060001c81600601819055507ff8365d4d9099667b0e8a25091b48c493c5bc6e86ec76cff2edac212a8e776b4083338460405161062793929190611c61565b60405180910390a180600101548160020154036106ae576106708160050160009054906101000a900473ffffffffffffffffffffffffffffffffffffffff168260010154610765565b6106a28160040160009054906101000a900473ffffffffffffffffffffffffffffffffffffffff168260030154610765565b6106ad8160016114ee565b5b505050565b6000601490506106c33382610765565b50565b60036020528060005260406000206000915090508060000154908060010154908060020154908060030154908060040160009054906101000a900473ffffffffffffffffffffffffffffffffffffffff16908060050160009054906101000a900473ffffffffffffffffffffffffffffffffffffffff16908060060154908060070160009054906101000a900460ff16905088565b6000600254905090565b6000803073ffffffffffffffffffffffffffffffffffffffff1673ffffffffffffffffffffffffffffffffffffffff168152602001908152602001600020548111156107b057600080fd5b610801816000808573ffffffffffffffffffffffffffffffffffffffff1673ffffffffffffffffffffffffffffffffffffffff1681526020019081526020016000205461155b90919063ffffffff16565b6000808473ffffffffffffffffffffffffffffffffffffffff1673ffffffffffffffffffffffffffffffffffffffff16815260200190815260200160002081905550610894816000803073ffffffffffffffffffffffffffffffffffffffff1673ffffffffffffffffffffffffffffffffffffffff1681526020019081526020016000205461158790919063ffffffff16565b6000803073ffffffffffffffffffffffffffffffffffffffff1673ffffffffffffffffffffffffffffffffffffffff168152602001908152602001600020819055505050565b60055481565b60008060008573ffffffffffffffffffffffffffffffffffffffff1673ffffffffffffffffffffffffffffffffffffffff1681526020019081526020016000205482111561092d57600080fd5b600160008573ffffffffffffffffffffffffffffffffffffffff1673ffffffffffffffffffffffffffffffffffffffff16815260200190815260200160002060003373ffffffffffffffffffffffffffffffffffffffff1673ffffffffffffffffffffffffffffffffffffffff168152602001908152602001600020548211156109b657600080fd5b610a07826000808773ffffffffffffffffffffffffffffffffffffffff1673ffffffffffffffffffffffffffffffffffffffff1681526020019081526020016000205461158790919063ffffffff16565b6000808673ffffffffffffffffffffffffffffffffffffffff1673ffffffffffffffffffffffffffffffffffffffff16815260200190815260200160002081905550610ad882600160008773ffffffffffffffffffffffffffffffffffffffff1673ffffffffffffffffffffffffffffffffffffffff16815260200190815260200160002060003373ffffffffffffffffffffffffffffffffffffffff1673ffffffffffffffffffffffffffffffffffffffff1681526020019081526020016000205461158790919063ffffffff16565b600160008673ffffffffffffffffffffffffffffffffffffffff1673ffffffffffffffffffffffffffffffffffffffff16815260200190815260200160002060003373ffffffffffffffffffffffffffffffffffffffff1673ffffffffffffffffffffffffffffffffffffffff16815260200190815260200160002081905550610ba9826000808673ffffffffffffffffffffffffffffffffffffffff1673ffffffffffffffffffffffffffffffffffffffff1681526020019081526020016000205461155b90919063ffffffff16565b6000808573ffffffffffffffffffffffffffffffffffffffff1673ffffffffffffffffffffffffffffffffffffffff168152602001908152602001600020819055508273ffffffffffffffffffffffffffffffffffffffff168473ffffffffffffffffffffffffffffffffffffffff167fddf252ad1be2c89b69c2b068fc378daa952ba7f163c4a11628f55a4df523b3ef84604051610c489190611915565b60405180910390a3600190509392505050565b600281565b6000600290506001600454610c759190611b87565b60048190555060006003600060045481526020019081526020016000209050600454816000018190555083816001018190555060008160020181905550338160040160006101000a81548173ffffffffffffffffffffffffffffffffffffffff021916908373ffffffffffffffffffffffffffffffffffffffff160217905550828160050160006101000a81548173ffffffffffffffffffffffffffffffffffffffff021916908373ffffffffffffffffffffffffffffffffffffffff16021790555060008160070160006101000a81548160ff02191690836002811115610d6057610d5f611820565b5b021790555081816003018190555080600360006004548152602001908152602001600020600082015481600001556001820154816001015560028201548160020155600382015481600301556004820160009054906101000a900473ffffffffffffffffffffffffffffffffffffffff168160040160006101000a81548173ffffffffffffffffffffffffffffffffffffffff021916908373ffffffffffffffffffffffffffffffffffffffff1602179055506005820160009054906101000a900473ffffffffffffffffffffffffffffffffffffffff168160050160006101000a81548173ffffffffffffffffffffffffffffffffffffffff021916908373ffffffffffffffffffffffffffffffffffffffff160217905550600682015481600601556007820160009054906101000a900460ff168160070160006101000a81548160ff02191690836002811115610ebc57610ebb611820565b5b0217905550905050610ecd826112f3565b7fdd464ef0714b8e2c9e17a85262fec4828985af1809cb31d22e902420b1a45c128160000154826001015483600301548460040160009054906101000a900473ffffffffffffffffffffffffffffffffffffffff168560050160009054906101000a900473ffffffffffffffffffffffffffffffffffffffff16604051610f58959493929190611cf7565b60405180910390a150505050565b60045481565b60008060008373ffffffffffffffffffffffffffffffffffffffff1673ffffffffffffffffffffffffffffffffffffffff168152602001908152602001600020549050919050565b6040518060400160405280600381526020017f445443000000000000000000000000000000000000000000000000000000000081525081565b60008060003373ffffffffffffffffffffffffffffffffffffffff1673ffffffffffffffffffffffffffffffffffffffff1681526020019081526020016000205482111561103a57600080fd5b61108b826000803373ffffffffffffffffffffffffffffffffffffffff1673ffffffffffffffffffffffffffffffffffffffff1681526020019081526020016000205461158790919063ffffffff16565b6000803373ffffffffffffffffffffffffffffffffffffffff1673ffffffffffffffffffffffffffffffffffffffff1681526020019081526020016000208190555061111e826000808673ffffffffffffffffffffffffffffffffffffffff1673ffffffffffffffffffffffffffffffffffffffff1681526020019081526020016000205461155b90919063ffffffff16565b6000808573ffffffffffffffffffffffffffffffffffffffff1673ffffffffffffffffffffffffffffffffffffffff168152602001908152602001600020819055508273ffffffffffffffffffffffffffffffffffffffff163373ffffffffffffffffffffffffffffffffffffffff167fddf252ad1be2c89b69c2b068fc378daa952ba7f163c4a11628f55a4df523b3ef846040516111bd9190611915565b60405180910390a36001905092915050565b8260008060028111156111e5576111e4611820565b5b6003600084815260200190815260200160002060070160009054906101000a900460ff16600281111561121b5761121a611820565b5b1461122557600080fd5b600060036000878152602001908152602001600020905060005b858590508110156112ad5761129a8686838181106112605761125f611d4a565b5b90506040020160000160208101906112789190611a26565b87878481811061128b5761128a611d4a565b5b90506040020160200135610765565b80806112a590611d79565b91505061123f565b506112e08160040160009054906101000a900473ffffffffffffffffffffffffffffffffffffffff168260030154610765565b6112eb8160026114ee565b505050505050565b6000803373ffffffffffffffffffffffffffffffffffffffff1673ffffffffffffffffffffffffffffffffffffffff1681526020019081526020016000205481111561133e57600080fd5b61138f816000803073ffffffffffffffffffffffffffffffffffffffff1673ffffffffffffffffffffffffffffffffffffffff1681526020019081526020016000205461155b90919063ffffffff16565b6000803073ffffffffffffffffffffffffffffffffffffffff1673ffffffffffffffffffffffffffffffffffffffff16815260200190815260200160002081905550611422816000803373ffffffffffffffffffffffffffffffffffffffff1673ffffffffffffffffffffffffffffffffffffffff1681526020019081526020016000205461158790919063ffffffff16565b6000803373ffffffffffffffffffffffffffffffffffffffff1673ffffffffffffffffffffffffffffffffffffffff1681526020019081526020016000208190555050565b6000600160008473ffffffffffffffffffffffffffffffffffffffff1673ffffffffffffffffffffffffffffffffffffffff16815260200190815260200160002060008373ffffffffffffffffffffffffffffffffffffffff1673ffffffffffffffffffffffffffffffffffffffff16815260200190815260200160002054905092915050565b808260070160006101000a81548160ff0219169083600281111561151557611514611820565b5b02179055507f4385d908f4912090c91def05ee37beafbc0e6df1d57f4a32396d602ebbce93a082600001548260405161154f929190611dc1565b60405180910390a15050565b600080828461156a9190611b87565b90508381101561157d5761157c611dea565b5b8091505092915050565b60008282111561159a57611599611dea565b5b81836115a69190611e19565b905092915050565b600081519050919050565b600082825260208201905092915050565b60005b838110156115e85780820151818401526020810190506115cd565b60008484015250505050565b6000601f19601f8301169050919050565b6000611610826115ae565b61161a81856115b9565b935061162a8185602086016115ca565b611633816115f4565b840191505092915050565b600060208201905081810360008301526116588184611605565b905092915050565b600080fd5b600080fd5b600073ffffffffffffffffffffffffffffffffffffffff82169050919050565b60006116958261166a565b9050919050565b6116a58161168a565b81146116b057600080fd5b50565b6000813590506116c28161169c565b92915050565b6000819050919050565b6116db816116c8565b81146116e657600080fd5b50565b6000813590506116f8816116d2565b92915050565b6000806040838503121561171557611714611660565b5b6000611723858286016116b3565b9250506020611734858286016116e9565b9150509250929050565b60008115159050919050565b6117538161173e565b82525050565b600060208201905061176e600083018461174a565b92915050565b6000806040838503121561178b5761178a611660565b5b6000611799858286016116e9565b92505060206117aa858286016116e9565b9150509250929050565b6000602082840312156117ca576117c9611660565b5b60006117d8848285016116e9565b91505092915050565b6117ea816116c8565b82525050565b6117f98161168a565b82525050565b600061180a8261166a565b9050919050565b61181a816117ff565b82525050565b7f4e487b7100000000000000000000000000000000000000000000000000000000600052602160045260246000fd5b600381106118605761185f611820565b5b50565b60008190506118718261184f565b919050565b600061188182611863565b9050919050565b61189181611876565b82525050565b6000610100820190506118ad600083018b6117e1565b6118ba602083018a6117e1565b6118c760408301896117e1565b6118d460608301886117e1565b6118e160808301876117f0565b6118ee60a0830186611811565b6118fb60c08301856117e1565b61190860e0830184611888565b9998505050505050505050565b600060208201905061192a60008301846117e1565b92915050565b60008060006060848603121561194957611948611660565b5b6000611957868287016116b3565b9350506020611968868287016116b3565b9250506040611979868287016116e9565b9150509250925092565b600060ff82169050919050565b61199981611983565b82525050565b60006020820190506119b46000830184611990565b92915050565b6119c3816117ff565b81146119ce57600080fd5b50565b6000813590506119e0816119ba565b92915050565b600080604083850312156119fd576119fc611660565b5b6000611a0b858286016116e9565b9250506020611a1c858286016119d1565b9150509250929050565b600060208284031215611a3c57611a3b611660565b5b6000611a4a848285016116b3565b91505092915050565b600080fd5b600080fd5b600080fd5b60008083601f840112611a7857611a77611a53565b5b8235905067ffffffffffffffff811115611a9557611a94611a58565b5b602083019150836040820283011115611ab157611ab0611a5d565b5b9250929050565b600080600060408486031215611ad157611ad0611660565b5b6000611adf868287016116e9565b935050602084013567ffffffffffffffff811115611b0057611aff611665565b5b611b0c86828701611a62565b92509250509250925092565b60008060408385031215611b2f57611b2e611660565b5b6000611b3d858286016116b3565b9250506020611b4e858286016116b3565b9150509250929050565b7f4e487b7100000000000000000000000000000000000000000000000000000000600052601160045260246000fd5b6000611b92826116c8565b9150611b9d836116c8565b9250828201905080821115611bb557611bb4611b58565b5b92915050565b6000819050919050565b611bd6611bd1826116c8565b611bbb565b82525050565b60008160601b9050919050565b6000611bf482611bdc565b9050919050565b6000611c0682611be9565b9050919050565b611c1e611c198261168a565b611bfb565b82525050565b6000611c308286611bc5565b602082019150611c408285611bc5565b602082019150611c508284611c0d565b601482019150819050949350505050565b6000606082019050611c7660008301866117e1565b611c8360208301856117f0565b611c9060408301846117e1565b949350505050565b6000819050919050565b6000611cbd611cb8611cb38461166a565b611c98565b61166a565b9050919050565b6000611ccf82611ca2565b9050919050565b6000611ce182611cc4565b9050919050565b611cf181611cd6565b82525050565b600060a082019050611d0c60008301886117e1565b611d1960208301876117e1565b611d2660408301866117e1565b611d3360608301856117f0565b611d406080830184611ce8565b9695505050505050565b7f4e487b7100000000000000000000000000000000000000000000000000000000600052603260045260246000fd5b6000611d84826116c8565b91507fffffffffffffffffffffffffffffffffffffffffffffffffffffffffffffffff8203611db657611db5611b58565b5b600182019050919050565b6000604082019050611dd660008301856117e1565b611de36020830184611888565b9392505050565b7f4e487b7100000000000000000000000000000000000000000000000000000000600052600160045260246000fd5b6000611e24826116c8565b9150611e2f836116c8565b9250828203905081811115611e4757611e46611b58565b5b9291505056fea2646970667358221220c4487dd58d069c891925f53cd5b3cac7b38e814513a3eb072eeb07dba7d343e864736f6c63430008110033",
  "immutableReferences": {},
  "source": "//SPDX-License-Identifier: UNLICENSED\r\npragma solidity 0.8.17;\r\n\r\ncontract Donations {\r\n    \r\n    string public constant name = \"DonateCoin\";\r\n    string public constant symbol = \"DTC\";\r\n    uint8 public constant decimals = 2;  \r\n\r\n    event Approval(address indexed tokenOwner, address indexed spender, uint tokens);\r\n    event Transfer(address indexed from, address indexed to, uint tokens);\r\n\r\n    mapping(address => uint256) balances;\r\n\r\n    mapping(address => mapping (address => uint256)) allowed;\r\n    \r\n    uint256 totalSupply_;\r\n\r\n    using SafeMath for uint256;\r\n\r\n\r\n    function totalSupply() public view returns (uint256) {\r\n\treturn totalSupply_;\r\n    }\r\n    \r\n    function balanceOf(address tokenOwner) public view returns (uint) {\r\n        return balances[tokenOwner];\r\n    }\r\n\r\n    function transfer(address receiver, uint numTokens) public returns (bool) {\r\n        require(numTokens <= balances[msg.sender]);\r\n        balances[msg.sender] = balances[msg.sender].sub(numTokens);\r\n        balances[receiver] = balances[receiver].add(numTokens);\r\n        emit Transfer(msg.sender, receiver, numTokens);\r\n        return true;\r\n    }\r\n\r\n    function approve(address delegate, uint numTokens) public returns (bool) {\r\n        allowed[msg.sender][delegate] = numTokens;\r\n        emit Approval(msg.sender, delegate, numTokens);\r\n        return true;\r\n    }\r\n\r\n    function allowance(address owner, address delegate) public view returns (uint) {\r\n        return allowed[owner][delegate];\r\n    }\r\n\r\n    function transferFrom(address owner, address buyer, uint numTokens) public returns (bool) {\r\n        require(numTokens <= balances[owner]);    \r\n        require(numTokens <= allowed[owner][msg.sender]);\r\n    \r\n        balances[owner] = balances[owner].sub(numTokens);\r\n        allowed[owner][msg.sender] = allowed[owner][msg.sender].sub(numTokens);\r\n        balances[buyer] = balances[buyer].add(numTokens);\r\n        emit Transfer(owner, buyer, numTokens);\r\n        return true;\r\n    }\r\n\r\n    enum Status {OPEN, CLOSED, EXPIRED}\r\n\r\n    struct Campaign {\r\n        uint id;\r\n        uint target;\r\n        uint fundsRaised;\r\n        uint deposit;\r\n        address createdBy;\r\n        address payable vendor;\r\n        uint donationsHash;\r\n        Status status;\r\n    }\r\n\r\n    struct Donor{\r\n        address donorAddress;\r\n        uint donatedAmount;\r\n    }\r\n\r\n    mapping(uint => Campaign) public campaigns;\r\n    uint public counter;\r\n    uint public percentToDeposit;\r\n\r\n    constructor (uint256 total) {\r\n        counter = 0;\r\n        totalSupply_ = total;\r\n\t    balances[address(this)] = totalSupply_;\r\n    }  \r\n\r\n    event Transition(uint campaignId, Status status);\r\n    event CreateCampaign(uint campaignId, uint target, uint deposit, address createdBy, address vendor);\r\n    event Donation(uint campaignId,address from, uint numTokens);\r\n\r\n    modifier validTransition(uint campaignId, Status status) {\r\n        require(campaigns[campaignId].status == status);\r\n        _;\r\n    }\r\n\r\n    modifier validCreateCampaign(uint amountRequired) {\r\n        require(amountRequired*percentToDeposit == msg.value*100);\r\n        _;\r\n    }\r\n\r\n    modifier validDonation(uint campaignId) {\r\n        require(campaigns[campaignId].fundsRaised + msg.value <= campaigns[campaignId].target);\r\n        _;\r\n    }\r\n\r\n    modifier validExpireCampaign(uint campaignId, Donor[] calldata donors) {\r\n        require(campaigns[campaignId].createdBy == msg.sender);\r\n        uint hashValue;\r\n        for (uint i=0;i<donors.length;i++){\r\n            hashValue = uint(keccak256(abi.encodePacked(hashValue,donors[i].donatedAmount,donors[i].donorAddress)));\r\n        }\r\n        require(hashValue == campaigns[campaignId].donationsHash);\r\n        _;\r\n    }\r\n\r\n    function getBalance() public payable {\r\n        uint numTokens=20;\r\n        transferFromContract(msg.sender,numTokens);\r\n    }\r\n\r\n    function transferFromContract(address receiver, uint numTokens) public payable {\r\n        require(numTokens <= balances[address(this)]);\r\n        balances[receiver] = balances[receiver].add(numTokens);\r\n        balances[address(this)]=balances[address(this)].sub(numTokens);\r\n    }\r\n\r\n    function transferToContract(uint numTokens) public payable {\r\n        require(numTokens <= balances[msg.sender]);\r\n        balances[address(this)] = balances[address(this)].add(numTokens);\r\n        balances[msg.sender]=balances[msg.sender].sub(numTokens);\r\n    }\r\n\r\n    function donate(uint campaignId, uint numTokens) public payable {\r\n        Campaign storage campaign = campaigns[campaignId];\r\n        require((campaign.fundsRaised+numTokens) <= campaign.target);\r\n        campaign.fundsRaised += numTokens;\r\n        transferToContract(numTokens);\r\n        campaign.donationsHash = uint(keccak256(abi.encodePacked(campaign.donationsHash,numTokens+1,msg.sender)));\r\n        emit Donation(campaignId,msg.sender, numTokens);\r\n        if (campaign.fundsRaised == campaign.target){\r\n            transferFromContract(campaign.vendor,campaign.target);\r\n            transferFromContract(campaign.createdBy,campaign.deposit);\r\n            closeCampaign(campaign,Status.CLOSED);\r\n        }\r\n    }\r\n\r\n    function createCampaign(uint amountRequired, address payable vendor) public payable {\r\n        uint deposit1=2;\r\n        counter = counter + 1;\r\n        Campaign storage campaign = campaigns[counter];\r\n        campaign.id = counter;\r\n        campaign.target = amountRequired;            \r\n        campaign.fundsRaised = 0;\r\n        campaign.createdBy = msg.sender;\r\n        campaign.vendor = vendor;\r\n        campaign.status = Status.OPEN;\r\n        campaign.deposit = deposit1;\r\n        campaigns[counter] = campaign;\r\n        //deposit1=(percentToDeposit*amountRequired)/100;\r\n        transferToContract(deposit1);\r\n        // balances[msg.sender] = balances[msg.sender].sub(deposit1);\r\n        emit CreateCampaign(campaign.id,campaign.target,campaign.deposit,campaign.createdBy,campaign.vendor);\r\n    }\r\n\r\n\r\n    function expireCampaign(uint campaignId, Donor[] calldata donors) public validTransition(campaignId,Status.OPEN) {\r\n        Campaign storage campaign = campaigns[campaignId];\r\n        for (uint i=0;i<donors.length;i++){\r\n            transferFromContract(donors[i].donorAddress,donors[i].donatedAmount);\r\n        }\r\n        transferFromContract(campaign.createdBy,campaign.deposit);\r\n        closeCampaign(campaign, Status.EXPIRED);\r\n    }\r\n\r\n    function closeCampaign(Campaign storage campaign, Status status) private {\r\n        campaign.status = status;\r\n        emit Transition(campaign.id, status);\r\n    }\r\n}\r\n\r\nlibrary SafeMath { \r\n    function sub(uint256 a, uint256 b) internal pure returns (uint256) {\r\n      assert(b <= a);\r\n      return a - b;\r\n    }\r\n    \r\n    function add(uint256 a, uint256 b) internal pure returns (uint256) {\r\n      uint256 c = a + b;\r\n      assert(c >= a);\r\n      return c;\r\n    }\r\n}",
  "sourcePath": "/home/eagle/MS/Courses/Blockchain/BlockchainProject/donation-contract/contracts/Donations.sol",
  "compiler": {
    "name": "solc",
    "version": "0.8.17+commit.8df45f5f.Emscripten.clang"
  },
  "schemaVersion": "3.4.10",
  "updatedAt": "2022-12-09T00:15:10.607Z",
  "networkType": "ethereum",
  "devdoc": {
    "kind": "dev",
    "methods": {},
    "version": 1
  },
  "userdoc": {
    "kind": "user",
    "methods": {},
    "version": 1
  }
}