{
  "contractName": "Donations",
  "abi": [
    {
      "inputs": [],
      "stateMutability": "nonpayable",
      "type": "constructor"
    },
    {
      "anonymous": false,
      "inputs": [
        {
          "indexed": false,
          "internalType": "uint256",
          "name": "campaignId",
          "type": "uint256"
        },
        {
          "indexed": false,
          "internalType": "address",
          "name": "_from",
          "type": "address"
        },
        {
          "indexed": false,
          "internalType": "uint256",
          "name": "_value",
          "type": "uint256"
        }
      ],
      "name": "Donation",
      "type": "event"
    },
    {
      "inputs": [
        {
          "internalType": "uint256",
          "name": "",
          "type": "uint256"
        }
      ],
      "name": "campaigns",
      "outputs": [
        {
          "internalType": "string",
          "name": "description",
          "type": "string"
        },
        {
          "internalType": "uint256",
          "name": "id",
          "type": "uint256"
        },
        {
          "internalType": "uint256",
          "name": "fundLimit",
          "type": "uint256"
        },
        {
          "internalType": "uint256",
          "name": "totalFundsRaised",
          "type": "uint256"
        },
        {
          "internalType": "uint256",
          "name": "pot",
          "type": "uint256"
        },
        {
          "internalType": "address payable",
          "name": "vendor",
          "type": "address"
        },
        {
          "internalType": "uint256",
          "name": "donationsHashed",
          "type": "uint256"
        },
        {
          "internalType": "enum Donations.State",
          "name": "state",
          "type": "uint8"
        }
      ],
      "stateMutability": "view",
      "type": "function",
      "constant": true
    },
    {
      "inputs": [],
      "name": "counter",
      "outputs": [
        {
          "internalType": "uint256",
          "name": "",
          "type": "uint256"
        }
      ],
      "stateMutability": "view",
      "type": "function",
      "constant": true
    },
    {
      "inputs": [
        {
          "internalType": "uint256",
          "name": "amountRequired",
          "type": "uint256"
        },
        {
          "internalType": "address payable",
          "name": "vendor",
          "type": "address"
        },
        {
          "internalType": "string",
          "name": "description",
          "type": "string"
        }
      ],
      "name": "createCampaign",
      "outputs": [],
      "stateMutability": "nonpayable",
      "type": "function"
    },
    {
      "inputs": [
        {
          "internalType": "uint256",
          "name": "campaignId",
          "type": "uint256"
        }
      ],
      "name": "donate",
      "outputs": [],
      "stateMutability": "payable",
      "type": "function",
      "payable": true
    },
    {
      "inputs": [
        {
          "internalType": "uint256",
          "name": "campaignId",
          "type": "uint256"
        },
        {
          "components": [
            {
              "internalType": "address",
              "name": "donorAddress",
              "type": "address"
            },
            {
              "internalType": "uint256",
              "name": "donatedAmount",
              "type": "uint256"
            }
          ],
          "internalType": "struct Donations.donor[]",
          "name": "donors",
          "type": "tuple[]"
        }
      ],
      "name": "expireCampaign",
      "outputs": [],
      "stateMutability": "nonpayable",
      "type": "function"
    }
  ],
  "bytecode": "0x608060405234801561001057600080fd5b5060006001819055506112fd806100286000396000f3fe60806040526004361061004a5760003560e01c8063141961bc1461004f57806361bc221a14610093578063b03b00f8146100be578063b87e1a0c146100e7578063f14faf6f14610110575b600080fd5b34801561005b57600080fd5b5061007660048036038101906100719190610806565b61012c565b60405161008a98979695949392919061098a565b60405180910390f35b34801561009f57600080fd5b506100a8610229565b6040516100b59190610a0f565b60405180910390f35b3480156100ca57600080fd5b506100e560048036038101906100e09190610a8f565b61022f565b005b3480156100f357600080fd5b5061010e60048036038101906101099190610c4b565b610421565b005b61012a60048036038101906101259190610806565b6105f6565b005b600060205280600052604060002060009150905080600001805461014f90610ce9565b80601f016020809104026020016040519081016040528092919081815260200182805461017b90610ce9565b80156101c85780601f1061019d576101008083540402835291602001916101c8565b820191906000526020600020905b8154815290600101906020018083116101ab57829003601f168201915b5050505050908060010154908060020154908060030154908060040154908060050160009054906101000a900473ffffffffffffffffffffffffffffffffffffffff16908060060154908060070160009054906101000a900460ff16905088565b60015481565b828282600080600090505b838390508110156102ce578184848381811061025957610258610d1a565b5b9050604002016020013585858481811061027657610275610d1a565b5b905060400201600001602081019061028e9190610d87565b6040516020016102a093929190610e1d565b6040516020818303038152906040528051906020012060001c915080806102c690610e89565b91505061023a565b506000808581526020019081526020016000206006015481146102f057600080fd5b86600080600281111561030657610305610913565b5b60008084815260200190815260200160002060070160009054906101000a900460ff16600281111561033b5761033a610913565b5b1461034557600080fd5b60008060008b8152602001908152602001600020905060005b898990508110156104095789898281811061037c5761037b610d1a565b5b90506040020160000160208101906103949190610d87565b73ffffffffffffffffffffffffffffffffffffffff166108fc8b8b848181106103c0576103bf610d1a565b5b905060400201602001359081150290604051600060405180830381858888f193505050501580156103f5573d6000803e3d6000fd5b50808061040190610e89565b91505061035e565b5061041581600261078c565b50505050505050505050565b6001805461042f9190610ed1565b6001819055506000806000600154815260200190815260200160002090508181600001908161045e91906110b1565b50600154816001018190555083816002018190555060008160030181905550828160050160006101000a81548173ffffffffffffffffffffffffffffffffffffffff021916908373ffffffffffffffffffffffffffffffffffffffff16021790555060008160070160006101000a81548160ff021916908360028111156104e8576104e7610913565b5b0217905550806000806001548152602001908152602001600020600082018160000190816105169190611199565b50600182015481600101556002820154816002015560038201548160030155600482015481600401556005820160009054906101000a900473ffffffffffffffffffffffffffffffffffffffff168160050160006101000a81548173ffffffffffffffffffffffffffffffffffffffff021916908373ffffffffffffffffffffffffffffffffffffffff160217905550600682015481600601556007820160009054906101000a900460ff168160070160006101000a81548160ff021916908360028111156105e8576105e7610913565b5b021790555090505050505050565b6000806000838152602001908152602001600020905080600201543482600301546106219190610ed1565b111561062c57600080fd5b600060028111156106405761063f610913565b5b8160070160009054906101000a900460ff16600281111561066457610663610913565b5b1461066e57600080fd5b348160030160008282546106829190610ed1565b925050819055508060020154816003015410610713578060050160009054906101000a900473ffffffffffffffffffffffffffffffffffffffff1673ffffffffffffffffffffffffffffffffffffffff166108fc82600201549081150290604051600060405180830381858888f19350505050158015610706573d6000803e3d6000fd5b5061071281600161078c565b5b8060060154343360405160200161072c93929190610e1d565b6040516020818303038152906040528051906020012060001c81600601819055507ff8365d4d9099667b0e8a25091b48c493c5bc6e86ec76cff2edac212a8e776b4082333460405161078093929190611290565b60405180910390a15050565b808260070160006101000a81548160ff021916908360028111156107b3576107b2610913565b5b02179055505050565b6000604051905090565b600080fd5b600080fd5b6000819050919050565b6107e3816107d0565b81146107ee57600080fd5b50565b600081359050610800816107da565b92915050565b60006020828403121561081c5761081b6107c6565b5b600061082a848285016107f1565b91505092915050565b600081519050919050565b600082825260208201905092915050565b60005b8381101561086d578082015181840152602081019050610852565b60008484015250505050565b6000601f19601f8301169050919050565b600061089582610833565b61089f818561083e565b93506108af81856020860161084f565b6108b881610879565b840191505092915050565b6108cc816107d0565b82525050565b600073ffffffffffffffffffffffffffffffffffffffff82169050919050565b60006108fd826108d2565b9050919050565b61090d816108f2565b82525050565b7f4e487b7100000000000000000000000000000000000000000000000000000000600052602160045260246000fd5b6003811061095357610952610913565b5b50565b600081905061096482610942565b919050565b600061097482610956565b9050919050565b61098481610969565b82525050565b60006101008201905081810360008301526109a5818b61088a565b90506109b4602083018a6108c3565b6109c160408301896108c3565b6109ce60608301886108c3565b6109db60808301876108c3565b6109e860a0830186610904565b6109f560c08301856108c3565b610a0260e083018461097b565b9998505050505050505050565b6000602082019050610a2460008301846108c3565b92915050565b600080fd5b600080fd5b600080fd5b60008083601f840112610a4f57610a4e610a2a565b5b8235905067ffffffffffffffff811115610a6c57610a6b610a2f565b5b602083019150836040820283011115610a8857610a87610a34565b5b9250929050565b600080600060408486031215610aa857610aa76107c6565b5b6000610ab6868287016107f1565b935050602084013567ffffffffffffffff811115610ad757610ad66107cb565b5b610ae386828701610a39565b92509250509250925092565b610af8816108f2565b8114610b0357600080fd5b50565b600081359050610b1581610aef565b92915050565b600080fd5b7f4e487b7100000000000000000000000000000000000000000000000000000000600052604160045260246000fd5b610b5882610879565b810181811067ffffffffffffffff82111715610b7757610b76610b20565b5b80604052505050565b6000610b8a6107bc565b9050610b968282610b4f565b919050565b600067ffffffffffffffff821115610bb657610bb5610b20565b5b610bbf82610879565b9050602081019050919050565b82818337600083830152505050565b6000610bee610be984610b9b565b610b80565b905082815260208101848484011115610c0a57610c09610b1b565b5b610c15848285610bcc565b509392505050565b600082601f830112610c3257610c31610a2a565b5b8135610c42848260208601610bdb565b91505092915050565b600080600060608486031215610c6457610c636107c6565b5b6000610c72868287016107f1565b9350506020610c8386828701610b06565b925050604084013567ffffffffffffffff811115610ca457610ca36107cb565b5b610cb086828701610c1d565b9150509250925092565b7f4e487b7100000000000000000000000000000000000000000000000000000000600052602260045260246000fd5b60006002820490506001821680610d0157607f821691505b602082108103610d1457610d13610cba565b5b50919050565b7f4e487b7100000000000000000000000000000000000000000000000000000000600052603260045260246000fd5b6000610d54826108d2565b9050919050565b610d6481610d49565b8114610d6f57600080fd5b50565b600081359050610d8181610d5b565b92915050565b600060208284031215610d9d57610d9c6107c6565b5b6000610dab84828501610d72565b91505092915050565b6000819050919050565b610dcf610dca826107d0565b610db4565b82525050565b60008160601b9050919050565b6000610ded82610dd5565b9050919050565b6000610dff82610de2565b9050919050565b610e17610e1282610d49565b610df4565b82525050565b6000610e298286610dbe565b602082019150610e398285610dbe565b602082019150610e498284610e06565b601482019150819050949350505050565b7f4e487b7100000000000000000000000000000000000000000000000000000000600052601160045260246000fd5b6000610e94826107d0565b91507fffffffffffffffffffffffffffffffffffffffffffffffffffffffffffffffff8203610ec657610ec5610e5a565b5b600182019050919050565b6000610edc826107d0565b9150610ee7836107d0565b9250828201905080821115610eff57610efe610e5a565b5b92915050565b60008190508160005260206000209050919050565b60006020601f8301049050919050565b600082821b905092915050565b600060088302610f677fffffffffffffffffffffffffffffffffffffffffffffffffffffffffffffffff82610f2a565b610f718683610f2a565b95508019841693508086168417925050509392505050565b6000819050919050565b6000610fae610fa9610fa4846107d0565b610f89565b6107d0565b9050919050565b6000819050919050565b610fc883610f93565b610fdc610fd482610fb5565b848454610f37565b825550505050565b600090565b610ff1610fe4565b610ffc818484610fbf565b505050565b5b8181101561102057611015600082610fe9565b600181019050611002565b5050565b601f8211156110655761103681610f05565b61103f84610f1a565b8101602085101561104e578190505b61106261105a85610f1a565b830182611001565b50505b505050565b600082821c905092915050565b60006110886000198460080261106a565b1980831691505092915050565b60006110a18383611077565b9150826002028217905092915050565b6110ba82610833565b67ffffffffffffffff8111156110d3576110d2610b20565b5b6110dd8254610ce9565b6110e8828285611024565b600060209050601f83116001811461111b5760008415611109578287015190505b6111138582611095565b86555061117b565b601f19841661112986610f05565b60005b828110156111515784890151825560018201915060208501945060208101905061112c565b8683101561116e578489015161116a601f891682611077565b8355505b6001600288020188555050505b505050505050565b60008154905061119281610ce9565b9050919050565b8181036111a757505061127f565b6111b082611183565b67ffffffffffffffff8111156111c9576111c8610b20565b5b6111d38254610ce9565b6111de828285611024565b6000601f83116001811461120d57600084156111fb578287015490505b6112058582611095565b865550611278565b601f19841661121b87610f05565b965061122686610f05565b60005b8281101561124e57848901548255600182019150600185019450602081019050611229565b8683101561126b5784890154611267601f891682611077565b8355505b6001600288020188555050505b5050505050505b565b61128a81610d49565b82525050565b60006060820190506112a560008301866108c3565b6112b26020830185611281565b6112bf60408301846108c3565b94935050505056fea26469706673582212205d10ff7403c5360ab3f963e0795da6dc9a9c6ce45ddf9bd74f8bb226be6e73a264736f6c63430008110033",
  "immutableReferences": {},
  "source": "//SPDX-License-Identifier: UNLICENSED\npragma solidity 0.8.17;\n\ncontract Donations {\n    \n    enum State {Open, Closed, Expired}\n\n    struct Campaign {\n        string description;\n        uint id;\n        uint fundLimit;\n        uint totalFundsRaised;\n        uint pot;\n        address payable vendor;\n        uint donationsHashed;\n        State state;\n    }\n\n    struct donor{\n        address donorAddress;\n        uint donatedAmount;\n    }\n\n    mapping(uint => Campaign) public campaigns;\n    uint public counter;\n    \n    constructor () {\n        counter = 0;\n    }  \n\n    event Donation(uint campaignId, address _from, uint _value);\n\n    function createCampaign(uint amountRequired, address payable vendor, string memory description) public {\n        counter = counter + 1;\n        Campaign storage campaign = campaigns[counter];\n        campaign.description = description;\n        campaign.id = counter;\n        campaign.fundLimit = amountRequired;            \n        campaign.totalFundsRaised = 0;\n        campaign.vendor = vendor;\n        campaign.state = State.Open;\n        campaigns[counter] = campaign;\n    }\n\n    function donate(uint campaignId) public payable {\n        // require(campaigns[campaignId] != 0);\n        Campaign storage campaign = campaigns[campaignId];\n        require(campaign.totalFundsRaised + msg.value <= campaign.fundLimit);\n        require(campaign.state == State.Open);\n        \n        // if (campaign.donations[msg.sender] != 0){\n        //     campaign.donations[msg.sender] += msg.value;\n        // }else {\n        //     campaign.donations[msg.sender] = msg.value;\n        //     campaign.donors.push(msg.sender);\n        // }\n        campaign.totalFundsRaised += msg.value;\n\n        if (campaign.totalFundsRaised >= campaign.fundLimit){\n            campaign.vendor.transfer(campaign.fundLimit);\n            closeCampaign(campaign,State.Closed);\n        }\n        campaign.donationsHashed = uint(keccak256(abi.encodePacked(campaign.donationsHashed,msg.value,msg.sender)));\n        emit Donation(campaignId, msg.sender, msg.value);\n        \n    }\n\n    function expireCampaign(uint campaignId, donor[] calldata donors) public validExpiry(campaignId,donors) validTransition(campaignId,State.Open){\n        Campaign storage campaign = campaigns[campaignId];\n\n        for (uint i=0;i<donors.length;i++){\n            payable(donors[i].donorAddress).transfer(donors[i].donatedAmount);\n        }\n\n        closeCampaign(campaign, State.Expired);\n    }\n\n    function closeCampaign(Campaign storage campaign, State state) private {\n        campaign.state = state;\n    }\n\n    modifier validExpiry(uint campaignId, donor[] calldata donors) {\n        uint hashValue;\n        for (uint i=0;i<donors.length;i++){\n            hashValue = uint(keccak256(abi.encodePacked(hashValue,donors[i].donatedAmount,donors[i].donorAddress)));\n        }\n        require(hashValue == campaigns[campaignId].donationsHashed);\n        _;\n    }\n\n    modifier validTransition(uint campaignId, State state) {\n        require(campaigns[campaignId].state == state);\n        _;\n    }\n\n}",
  "sourcePath": "/home/eagle/MS/Courses/Blockchain/BlockchainProject/donation-contract/contracts/Donations.sol",
  "compiler": {
    "name": "solc",
    "version": "0.8.17+commit.8df45f5f.Emscripten.clang"
  },
  "schemaVersion": "3.4.10",
  "updatedAt": "2022-11-06T01:03:08.396Z",
  "networkType": "ethereum",
  "devdoc": {
    "kind": "dev",
    "methods": {},
    "version": 1
  },
  "userdoc": {
    "kind": "user",
    "methods": {},
    "version": 1
  }
}