{
  "contractName": "Donations",
  "abi": [
    {
      "inputs": [
        {
          "internalType": "uint256",
          "name": "percentToDepositValue",
          "type": "uint256"
        }
      ],
      "stateMutability": "nonpayable",
      "type": "constructor"
    },
    {
      "anonymous": false,
      "inputs": [
        {
          "indexed": false,
          "internalType": "uint256",
          "name": "campaignId",
          "type": "uint256"
        },
        {
          "indexed": false,
          "internalType": "uint256",
          "name": "target",
          "type": "uint256"
        },
        {
          "indexed": false,
          "internalType": "uint256",
          "name": "deposit",
          "type": "uint256"
        },
        {
          "indexed": false,
          "internalType": "address",
          "name": "createdBy",
          "type": "address"
        },
        {
          "indexed": false,
          "internalType": "address",
          "name": "vendor",
          "type": "address"
        }
      ],
      "name": "CreateCampaign",
      "type": "event"
    },
    {
      "anonymous": false,
      "inputs": [
        {
          "indexed": false,
          "internalType": "uint256",
          "name": "campaignId",
          "type": "uint256"
        },
        {
          "indexed": false,
          "internalType": "address",
          "name": "_from",
          "type": "address"
        },
        {
          "indexed": false,
          "internalType": "uint256",
          "name": "_value",
          "type": "uint256"
        }
      ],
      "name": "Donation",
      "type": "event"
    },
    {
      "anonymous": false,
      "inputs": [
        {
          "indexed": false,
          "internalType": "uint256",
          "name": "campaignId",
          "type": "uint256"
        },
        {
          "indexed": false,
          "internalType": "enum Donations.Status",
          "name": "status",
          "type": "uint8"
        }
      ],
      "name": "Transition",
      "type": "event"
    },
    {
      "inputs": [
        {
          "internalType": "uint256",
          "name": "",
          "type": "uint256"
        }
      ],
      "name": "campaigns",
      "outputs": [
        {
          "internalType": "uint256",
          "name": "id",
          "type": "uint256"
        },
        {
          "internalType": "uint256",
          "name": "target",
          "type": "uint256"
        },
        {
          "internalType": "uint256",
          "name": "fundsRaised",
          "type": "uint256"
        },
        {
          "internalType": "uint256",
          "name": "deposit",
          "type": "uint256"
        },
        {
          "internalType": "address",
          "name": "createdBy",
          "type": "address"
        },
        {
          "internalType": "address payable",
          "name": "vendor",
          "type": "address"
        },
        {
          "internalType": "uint256",
          "name": "donationsHash",
          "type": "uint256"
        },
        {
          "internalType": "enum Donations.Status",
          "name": "status",
          "type": "uint8"
        }
      ],
      "stateMutability": "view",
      "type": "function",
      "constant": true
    },
    {
      "inputs": [],
      "name": "counter",
      "outputs": [
        {
          "internalType": "uint256",
          "name": "",
          "type": "uint256"
        }
      ],
      "stateMutability": "view",
      "type": "function",
      "constant": true
    },
    {
      "inputs": [],
      "name": "percentToDeposit",
      "outputs": [
        {
          "internalType": "uint256",
          "name": "",
          "type": "uint256"
        }
      ],
      "stateMutability": "view",
      "type": "function",
      "constant": true
    },
    {
      "inputs": [
        {
          "internalType": "uint256",
          "name": "amountRequired",
          "type": "uint256"
        },
        {
          "internalType": "address payable",
          "name": "vendor",
          "type": "address"
        }
      ],
      "name": "createCampaign",
      "outputs": [],
      "stateMutability": "payable",
      "type": "function",
      "payable": true
    },
    {
      "inputs": [
        {
          "internalType": "uint256",
          "name": "campaignId",
          "type": "uint256"
        }
      ],
      "name": "donate",
      "outputs": [],
      "stateMutability": "payable",
      "type": "function",
      "payable": true
    },
    {
      "inputs": [
        {
          "internalType": "uint256",
          "name": "campaignId",
          "type": "uint256"
        },
        {
          "components": [
            {
              "internalType": "address",
              "name": "donorAddress",
              "type": "address"
            },
            {
              "internalType": "uint256",
              "name": "donatedAmount",
              "type": "uint256"
            }
          ],
          "internalType": "struct Donations.Donor[]",
          "name": "donors",
          "type": "tuple[]"
        }
      ],
      "name": "expireCampaign",
      "outputs": [],
      "stateMutability": "nonpayable",
      "type": "function"
    }
  ],
  "bytecode": "0x608060405234801561001057600080fd5b50604051620011cc380380620011cc83398181016040528101906100349190610084565b600060018190555080600281905550506100b1565b600080fd5b6000819050919050565b6100618161004e565b811461006c57600080fd5b50565b60008151905061007e81610058565b92915050565b60006020828403121561009a57610099610049565b5b60006100a88482850161006f565b91505092915050565b61110b80620000c16000396000f3fe6080604052600436106100555760003560e01c8063141961bc1461005a5780631be021d21461009e57806332ba9cce146100c957806361bc221a146100e5578063b03b00f814610110578063f14faf6f14610139575b600080fd5b34801561006657600080fd5b50610081600480360381019061007c9190610ac9565b610155565b604051610095989796959493929190610bde565b60405180910390f35b3480156100aa57600080fd5b506100b36101ea565b6040516100c09190610c5c565b60405180910390f35b6100e360048036038101906100de9190610ca3565b6101f0565b005b3480156100f157600080fd5b506100fa61050a565b6040516101079190610c5c565b60405180910390f35b34801561011c57600080fd5b5061013760048036038101906101329190610d48565b610510565b005b610153600480360381019061014e9190610ac9565b6107de565b005b60006020528060005260406000206000915090508060000154908060010154908060020154908060030154908060040160009054906101000a900473ffffffffffffffffffffffffffffffffffffffff16908060050160009054906101000a900473ffffffffffffffffffffffffffffffffffffffff16908060060154908060070160009054906101000a900460ff16905088565b60025481565b816064346101fe9190610dd7565b6002548261020c9190610dd7565b1461021657600080fd5b600180546102249190610e19565b600181905550600080600060015481526020019081526020016000209050600154816000018190555083816001018190555060008160020181905550338160040160006101000a81548173ffffffffffffffffffffffffffffffffffffffff021916908373ffffffffffffffffffffffffffffffffffffffff160217905550828160050160006101000a81548173ffffffffffffffffffffffffffffffffffffffff021916908373ffffffffffffffffffffffffffffffffffffffff16021790555060008160070160006101000a81548160ff0219169083600281111561030e5761030d610b67565b5b0217905550348160030181905550806000806001548152602001908152602001600020600082015481600001556001820154816001015560028201548160020155600382015481600301556004820160009054906101000a900473ffffffffffffffffffffffffffffffffffffffff168160040160006101000a81548173ffffffffffffffffffffffffffffffffffffffff021916908373ffffffffffffffffffffffffffffffffffffffff1602179055506005820160009054906101000a900473ffffffffffffffffffffffffffffffffffffffff168160050160006101000a81548173ffffffffffffffffffffffffffffffffffffffff021916908373ffffffffffffffffffffffffffffffffffffffff160217905550600682015481600601556007820160009054906101000a900460ff168160070160006101000a81548160ff0219169083600281111561046957610468610b67565b5b02179055509050507fdd464ef0714b8e2c9e17a85262fec4828985af1809cb31d22e902420b1a45c128160000154826001015483600301548460040160009054906101000a900473ffffffffffffffffffffffffffffffffffffffff168560050160009054906101000a900473ffffffffffffffffffffffffffffffffffffffff166040516104fc959493929190610eac565b60405180910390a150505050565b60015481565b82600080600281111561052657610525610b67565b5b60008084815260200190815260200160002060070160009054906101000a900460ff16600281111561055b5761055a610b67565b5b1461056557600080fd5b8484843373ffffffffffffffffffffffffffffffffffffffff1660008085815260200190815260200160002060040160009054906101000a900473ffffffffffffffffffffffffffffffffffffffff1673ffffffffffffffffffffffffffffffffffffffff16146105d557600080fd5b600080600090505b8383905081101561067157818484838181106105fc576105fb610eff565b5b9050604002016020013585858481811061061957610618610eff565b5b90506040020160000160208101906106319190610f5a565b60405160200161064393929190610ff0565b6040516020818303038152906040528051906020012060001c915080806106699061102d565b9150506105dd565b5060008085815260200190815260200160002060060154811461069357600080fd5b60008060008b8152602001908152602001600020905060005b89899050811015610757578989828181106106ca576106c9610eff565b5b90506040020160000160208101906106e29190610f5a565b73ffffffffffffffffffffffffffffffffffffffff166108fc8b8b8481811061070e5761070d610eff565b5b905060400201602001359081150290604051600060405180830381858888f19350505050158015610743573d6000803e3d6000fd5b50808061074f9061102d565b9150506106ac565b508060040160009054906101000a900473ffffffffffffffffffffffffffffffffffffffff1673ffffffffffffffffffffffffffffffffffffffff166108fc82600301549081150290604051600060405180830381858888f193505050501580156107c6573d6000803e3d6000fd5b506107d2816002610a1c565b50505050505050505050565b8060008060028111156107f4576107f3610b67565b5b60008084815260200190815260200160002060070160009054906101000a900460ff16600281111561082957610828610b67565b5b1461083357600080fd5b8260008082815260200190815260200160002060010154346000808481526020019081526020016000206002015461086b9190610e19565b111561087657600080fd5b60008060008681526020019081526020016000209050348160020160008282546108a09190610e19565b92505081905550806006015434336040516020016108c093929190610ff0565b6040516020818303038152906040528051906020012060001c81600601819055507ff8365d4d9099667b0e8a25091b48c493c5bc6e86ec76cff2edac212a8e776b4085333460405161091493929190611075565b60405180910390a18060010154816002015403610a15578060050160009054906101000a900473ffffffffffffffffffffffffffffffffffffffff1673ffffffffffffffffffffffffffffffffffffffff166108fc82600101549081150290604051600060405180830381858888f19350505050158015610999573d6000803e3d6000fd5b508060040160009054906101000a900473ffffffffffffffffffffffffffffffffffffffff1673ffffffffffffffffffffffffffffffffffffffff166108fc82600301549081150290604051600060405180830381858888f19350505050158015610a08573d6000803e3d6000fd5b50610a14816001610a1c565b5b5050505050565b808260070160006101000a81548160ff02191690836002811115610a4357610a42610b67565b5b02179055507f4385d908f4912090c91def05ee37beafbc0e6df1d57f4a32396d602ebbce93a0826000015482604051610a7d9291906110ac565b60405180910390a15050565b600080fd5b600080fd5b6000819050919050565b610aa681610a93565b8114610ab157600080fd5b50565b600081359050610ac381610a9d565b92915050565b600060208284031215610adf57610ade610a89565b5b6000610aed84828501610ab4565b91505092915050565b610aff81610a93565b82525050565b600073ffffffffffffffffffffffffffffffffffffffff82169050919050565b6000610b3082610b05565b9050919050565b610b4081610b25565b82525050565b6000610b5182610b05565b9050919050565b610b6181610b46565b82525050565b7f4e487b7100000000000000000000000000000000000000000000000000000000600052602160045260246000fd5b60038110610ba757610ba6610b67565b5b50565b6000819050610bb882610b96565b919050565b6000610bc882610baa565b9050919050565b610bd881610bbd565b82525050565b600061010082019050610bf4600083018b610af6565b610c01602083018a610af6565b610c0e6040830189610af6565b610c1b6060830188610af6565b610c286080830187610b37565b610c3560a0830186610b58565b610c4260c0830185610af6565b610c4f60e0830184610bcf565b9998505050505050505050565b6000602082019050610c716000830184610af6565b92915050565b610c8081610b46565b8114610c8b57600080fd5b50565b600081359050610c9d81610c77565b92915050565b60008060408385031215610cba57610cb9610a89565b5b6000610cc885828601610ab4565b9250506020610cd985828601610c8e565b9150509250929050565b600080fd5b600080fd5b600080fd5b60008083601f840112610d0857610d07610ce3565b5b8235905067ffffffffffffffff811115610d2557610d24610ce8565b5b602083019150836040820283011115610d4157610d40610ced565b5b9250929050565b600080600060408486031215610d6157610d60610a89565b5b6000610d6f86828701610ab4565b935050602084013567ffffffffffffffff811115610d9057610d8f610a8e565b5b610d9c86828701610cf2565b92509250509250925092565b7f4e487b7100000000000000000000000000000000000000000000000000000000600052601160045260246000fd5b6000610de282610a93565b9150610ded83610a93565b9250828202610dfb81610a93565b91508282048414831517610e1257610e11610da8565b5b5092915050565b6000610e2482610a93565b9150610e2f83610a93565b9250828201905080821115610e4757610e46610da8565b5b92915050565b6000819050919050565b6000610e72610e6d610e6884610b05565b610e4d565b610b05565b9050919050565b6000610e8482610e57565b9050919050565b6000610e9682610e79565b9050919050565b610ea681610e8b565b82525050565b600060a082019050610ec16000830188610af6565b610ece6020830187610af6565b610edb6040830186610af6565b610ee86060830185610b37565b610ef56080830184610e9d565b9695505050505050565b7f4e487b7100000000000000000000000000000000000000000000000000000000600052603260045260246000fd5b610f3781610b25565b8114610f4257600080fd5b50565b600081359050610f5481610f2e565b92915050565b600060208284031215610f7057610f6f610a89565b5b6000610f7e84828501610f45565b91505092915050565b6000819050919050565b610fa2610f9d82610a93565b610f87565b82525050565b60008160601b9050919050565b6000610fc082610fa8565b9050919050565b6000610fd282610fb5565b9050919050565b610fea610fe582610b25565b610fc7565b82525050565b6000610ffc8286610f91565b60208201915061100c8285610f91565b60208201915061101c8284610fd9565b601482019150819050949350505050565b600061103882610a93565b91507fffffffffffffffffffffffffffffffffffffffffffffffffffffffffffffffff820361106a57611069610da8565b5b600182019050919050565b600060608201905061108a6000830186610af6565b6110976020830185610b37565b6110a46040830184610af6565b949350505050565b60006040820190506110c16000830185610af6565b6110ce6020830184610bcf565b939250505056fea2646970667358221220e17a0a30c5836ac1ac845aa5c05cbc9975cc5f4b7dfc8e29027f5deb08b5181764736f6c63430008110033",
  "immutableReferences": {},
  "source": "//SPDX-License-Identifier: UNLICENSED\npragma solidity 0.8.17;\n\ncontract Donations {\n    \n    enum Status {OPEN, CLOSED, EXPIRED}\n\n    struct Campaign {\n        uint id;\n        uint target;\n        uint fundsRaised;\n        uint deposit;\n        address createdBy;\n        address payable vendor;\n        uint donationsHash;\n        Status status;\n    }\n\n    struct Donor{\n        address donorAddress;\n        uint donatedAmount;\n    }\n\n    mapping(uint => Campaign) public campaigns;\n    uint public counter;\n    uint public percentToDeposit;\n    \n    constructor (uint percentToDepositValue) {\n        counter = 0;\n        percentToDeposit = percentToDepositValue;\n    }  \n\n    event Donation(uint campaignId, address _from, uint _value);\n    event Transition(uint campaignId, Status status);\n    event CreateCampaign(uint campaignId, uint target, uint deposit, address createdBy, address vendor);\n\n    modifier validTransition(uint campaignId, Status status) {\n        require(campaigns[campaignId].status == status);\n        _;\n    }\n\n    modifier validCreateCampaign(uint amountRequired) {\n        require(amountRequired*percentToDeposit == msg.value*100);\n        _;\n    }\n\n    modifier validDonation(uint campaignId) {\n        require(campaigns[campaignId].fundsRaised + msg.value <= campaigns[campaignId].target);\n        _;\n    }\n\n    modifier validExpireCampaign(uint campaignId, Donor[] calldata donors) {\n        require(campaigns[campaignId].createdBy == msg.sender);\n        uint hashValue;\n        for (uint i=0;i<donors.length;i++){\n            hashValue = uint(keccak256(abi.encodePacked(hashValue,donors[i].donatedAmount,donors[i].donorAddress)));\n        }\n        require(hashValue == campaigns[campaignId].donationsHash);\n        _;\n    }\n\n    function createCampaign(uint amountRequired, address payable vendor) public payable validCreateCampaign(amountRequired) {\n        counter = counter + 1;\n        Campaign storage campaign = campaigns[counter];\n        campaign.id = counter;\n        campaign.target = amountRequired;            \n        campaign.fundsRaised = 0;\n        campaign.createdBy = msg.sender;\n        campaign.vendor = vendor;\n        campaign.status = Status.OPEN;\n        campaign.deposit = msg.value;\n        campaigns[counter] = campaign;\n        emit CreateCampaign(campaign.id,campaign.target,campaign.deposit,campaign.createdBy,campaign.vendor);\n    }\n\n    function donate(uint campaignId) public payable validTransition(campaignId, Status.OPEN) validDonation(campaignId) {\n        Campaign storage campaign = campaigns[campaignId];\n        campaign.fundsRaised += msg.value;\n\n        campaign.donationsHash = uint(keccak256(abi.encodePacked(campaign.donationsHash,msg.value,msg.sender)));\n        emit Donation(campaignId, msg.sender, msg.value);\n\n        if (campaign.fundsRaised == campaign.target){\n            campaign.vendor.transfer(campaign.target);\n            payable(campaign.createdBy).transfer(campaign.deposit);\n            closeCampaign(campaign,Status.CLOSED);\n        }\n    }\n\n    function expireCampaign(uint campaignId, Donor[] calldata donors) public validTransition(campaignId,Status.OPEN) validExpireCampaign(campaignId,donors) {\n        Campaign storage campaign = campaigns[campaignId];\n        for (uint i=0;i<donors.length;i++){\n            payable(donors[i].donorAddress).transfer(donors[i].donatedAmount);\n        }\n        payable(campaign.createdBy).transfer(campaign.deposit);\n        closeCampaign(campaign, Status.EXPIRED);\n    }\n\n    function closeCampaign(Campaign storage campaign, Status status) private {\n        campaign.status = status;\n        emit Transition(campaign.id, status);\n    }\n}\n",
  "sourcePath": "/home/eagle/MS/Courses/Blockchain/BlockchainProject/donation-contract/contracts/Donations.sol",
  "compiler": {
    "name": "solc",
    "version": "0.8.17+commit.8df45f5f.Emscripten.clang"
  },
  "schemaVersion": "3.4.10",
  "updatedAt": "2022-11-11T16:38:46.044Z",
  "networkType": "ethereum",
  "devdoc": {
    "kind": "dev",
    "methods": {},
    "version": 1
  },
  "userdoc": {
    "kind": "user",
    "methods": {},
    "version": 1
  }
}