{
  "contractName": "Donations",
  "abi": [
    {
      "inputs": [
        {
          "internalType": "uint256",
          "name": "percentToDepositValue",
          "type": "uint256"
        }
      ],
      "stateMutability": "nonpayable",
      "type": "constructor"
    },
    {
      "anonymous": false,
      "inputs": [
        {
          "indexed": false,
          "internalType": "uint256",
          "name": "campaignId",
          "type": "uint256"
        },
        {
          "indexed": false,
          "internalType": "address",
          "name": "_from",
          "type": "address"
        },
        {
          "indexed": false,
          "internalType": "uint256",
          "name": "_value",
          "type": "uint256"
        }
      ],
      "name": "Donation",
      "type": "event"
    },
    {
      "anonymous": false,
      "inputs": [
        {
          "indexed": false,
          "internalType": "uint256",
          "name": "campaignId",
          "type": "uint256"
        },
        {
          "indexed": false,
          "internalType": "enum Donations.State",
          "name": "state",
          "type": "uint8"
        }
      ],
      "name": "StateTransition",
      "type": "event"
    },
    {
      "inputs": [
        {
          "internalType": "uint256",
          "name": "",
          "type": "uint256"
        }
      ],
      "name": "campaigns",
      "outputs": [
        {
          "internalType": "uint256",
          "name": "id",
          "type": "uint256"
        },
        {
          "internalType": "uint256",
          "name": "target",
          "type": "uint256"
        },
        {
          "internalType": "uint256",
          "name": "fundsRaised",
          "type": "uint256"
        },
        {
          "internalType": "uint256",
          "name": "deposit",
          "type": "uint256"
        },
        {
          "internalType": "address",
          "name": "createdBy",
          "type": "address"
        },
        {
          "internalType": "address payable",
          "name": "vendor",
          "type": "address"
        },
        {
          "internalType": "uint256",
          "name": "donationsHash",
          "type": "uint256"
        },
        {
          "internalType": "enum Donations.State",
          "name": "state",
          "type": "uint8"
        }
      ],
      "stateMutability": "view",
      "type": "function",
      "constant": true
    },
    {
      "inputs": [],
      "name": "counter",
      "outputs": [
        {
          "internalType": "uint256",
          "name": "",
          "type": "uint256"
        }
      ],
      "stateMutability": "view",
      "type": "function",
      "constant": true
    },
    {
      "inputs": [],
      "name": "percentToDeposit",
      "outputs": [
        {
          "internalType": "uint256",
          "name": "",
          "type": "uint256"
        }
      ],
      "stateMutability": "view",
      "type": "function",
      "constant": true
    },
    {
      "inputs": [
        {
          "internalType": "uint256",
          "name": "amountRequired",
          "type": "uint256"
        },
        {
          "internalType": "address payable",
          "name": "vendor",
          "type": "address"
        }
      ],
      "name": "createCampaign",
      "outputs": [],
      "stateMutability": "payable",
      "type": "function",
      "payable": true
    },
    {
      "inputs": [
        {
          "internalType": "uint256",
          "name": "campaignId",
          "type": "uint256"
        }
      ],
      "name": "donate",
      "outputs": [],
      "stateMutability": "payable",
      "type": "function",
      "payable": true
    },
    {
      "inputs": [
        {
          "internalType": "uint256",
          "name": "campaignId",
          "type": "uint256"
        },
        {
          "components": [
            {
              "internalType": "address",
              "name": "donorAddress",
              "type": "address"
            },
            {
              "internalType": "uint256",
              "name": "donatedAmount",
              "type": "uint256"
            }
          ],
          "internalType": "struct Donations.Donor[]",
          "name": "donors",
          "type": "tuple[]"
        }
      ],
      "name": "expireCampaign",
      "outputs": [],
      "stateMutability": "nonpayable",
      "type": "function"
    }
  ],
  "bytecode": "0x608060405234801561001057600080fd5b5060405161108438038061108483398181016040528101906100329190610082565b600060018190555080600281905550506100af565b600080fd5b6000819050919050565b61005f8161004c565b811461006a57600080fd5b50565b60008151905061007c81610056565b92915050565b60006020828403121561009857610097610047565b5b60006100a68482850161006d565b91505092915050565b610fc6806100be6000396000f3fe6080604052600436106100555760003560e01c8063141961bc1461005a5780631be021d21461009e57806332ba9cce146100c957806361bc221a146100e5578063b03b00f814610110578063f14faf6f14610139575b600080fd5b34801561006657600080fd5b50610081600480360381019061007c9190610a36565b610155565b604051610095989796959493929190610b4b565b60405180910390f35b3480156100aa57600080fd5b506100b36101ea565b6040516100c09190610bc9565b60405180910390f35b6100e360048036038101906100de9190610c10565b6101f0565b005b3480156100f157600080fd5b506100fa610477565b6040516101079190610bc9565b60405180910390f35b34801561011c57600080fd5b5061013760048036038101906101329190610cb5565b61047d565b005b610153600480360381019061014e9190610a36565b61074b565b005b60006020528060005260406000206000915090508060000154908060010154908060020154908060030154908060040160009054906101000a900473ffffffffffffffffffffffffffffffffffffffff16908060050160009054906101000a900473ffffffffffffffffffffffffffffffffffffffff16908060060154908060070160009054906101000a900460ff16905088565b60025481565b816064346101fe9190610d44565b6002548261020c9190610d44565b1461021657600080fd5b600180546102249190610d86565b600181905550600080600060015481526020019081526020016000209050600154816000018190555083816001018190555060008160020181905550338160040160006101000a81548173ffffffffffffffffffffffffffffffffffffffff021916908373ffffffffffffffffffffffffffffffffffffffff160217905550828160050160006101000a81548173ffffffffffffffffffffffffffffffffffffffff021916908373ffffffffffffffffffffffffffffffffffffffff16021790555060008160070160006101000a81548160ff0219169083600281111561030e5761030d610ad4565b5b0217905550348160030181905550806000806001548152602001908152602001600020600082015481600001556001820154816001015560028201548160020155600382015481600301556004820160009054906101000a900473ffffffffffffffffffffffffffffffffffffffff168160040160006101000a81548173ffffffffffffffffffffffffffffffffffffffff021916908373ffffffffffffffffffffffffffffffffffffffff1602179055506005820160009054906101000a900473ffffffffffffffffffffffffffffffffffffffff168160050160006101000a81548173ffffffffffffffffffffffffffffffffffffffff021916908373ffffffffffffffffffffffffffffffffffffffff160217905550600682015481600601556007820160009054906101000a900460ff168160070160006101000a81548160ff0219169083600281111561046957610468610ad4565b5b021790555090505050505050565b60015481565b82600080600281111561049357610492610ad4565b5b60008084815260200190815260200160002060070160009054906101000a900460ff1660028111156104c8576104c7610ad4565b5b146104d257600080fd5b8484843373ffffffffffffffffffffffffffffffffffffffff1660008085815260200190815260200160002060040160009054906101000a900473ffffffffffffffffffffffffffffffffffffffff1673ffffffffffffffffffffffffffffffffffffffff161461054257600080fd5b600080600090505b838390508110156105de578184848381811061056957610568610dba565b5b9050604002016020013585858481811061058657610585610dba565b5b905060400201600001602081019061059e9190610e15565b6040516020016105b093929190610eab565b6040516020818303038152906040528051906020012060001c915080806105d690610ee8565b91505061054a565b5060008085815260200190815260200160002060060154811461060057600080fd5b60008060008b8152602001908152602001600020905060005b898990508110156106c45789898281811061063757610636610dba565b5b905060400201600001602081019061064f9190610e15565b73ffffffffffffffffffffffffffffffffffffffff166108fc8b8b8481811061067b5761067a610dba565b5b905060400201602001359081150290604051600060405180830381858888f193505050501580156106b0573d6000803e3d6000fd5b5080806106bc90610ee8565b915050610619565b508060040160009054906101000a900473ffffffffffffffffffffffffffffffffffffffff1673ffffffffffffffffffffffffffffffffffffffff166108fc82600301549081150290604051600060405180830381858888f19350505050158015610733573d6000803e3d6000fd5b5061073f816002610989565b50505050505050505050565b80600080600281111561076157610760610ad4565b5b60008084815260200190815260200160002060070160009054906101000a900460ff16600281111561079657610795610ad4565b5b146107a057600080fd5b826000808281526020019081526020016000206001015434600080848152602001908152602001600020600201546107d89190610d86565b11156107e357600080fd5b600080600086815260200190815260200160002090503481600201600082825461080d9190610d86565b925050819055508060060154343360405160200161082d93929190610eab565b6040516020818303038152906040528051906020012060001c81600601819055507ff8365d4d9099667b0e8a25091b48c493c5bc6e86ec76cff2edac212a8e776b4085333460405161088193929190610f30565b60405180910390a18060010154816002015403610982578060050160009054906101000a900473ffffffffffffffffffffffffffffffffffffffff1673ffffffffffffffffffffffffffffffffffffffff166108fc82600101549081150290604051600060405180830381858888f19350505050158015610906573d6000803e3d6000fd5b508060040160009054906101000a900473ffffffffffffffffffffffffffffffffffffffff1673ffffffffffffffffffffffffffffffffffffffff166108fc82600301549081150290604051600060405180830381858888f19350505050158015610975573d6000803e3d6000fd5b50610981816001610989565b5b5050505050565b808260070160006101000a81548160ff021916908360028111156109b0576109af610ad4565b5b02179055507f1d9a5adaed0175657ad0abaf2e54cb87549dd0da2a8d6ff5f89f728d29b575ea8260000154826040516109ea929190610f67565b60405180910390a15050565b600080fd5b600080fd5b6000819050919050565b610a1381610a00565b8114610a1e57600080fd5b50565b600081359050610a3081610a0a565b92915050565b600060208284031215610a4c57610a4b6109f6565b5b6000610a5a84828501610a21565b91505092915050565b610a6c81610a00565b82525050565b600073ffffffffffffffffffffffffffffffffffffffff82169050919050565b6000610a9d82610a72565b9050919050565b610aad81610a92565b82525050565b6000610abe82610a72565b9050919050565b610ace81610ab3565b82525050565b7f4e487b7100000000000000000000000000000000000000000000000000000000600052602160045260246000fd5b60038110610b1457610b13610ad4565b5b50565b6000819050610b2582610b03565b919050565b6000610b3582610b17565b9050919050565b610b4581610b2a565b82525050565b600061010082019050610b61600083018b610a63565b610b6e602083018a610a63565b610b7b6040830189610a63565b610b886060830188610a63565b610b956080830187610aa4565b610ba260a0830186610ac5565b610baf60c0830185610a63565b610bbc60e0830184610b3c565b9998505050505050505050565b6000602082019050610bde6000830184610a63565b92915050565b610bed81610ab3565b8114610bf857600080fd5b50565b600081359050610c0a81610be4565b92915050565b60008060408385031215610c2757610c266109f6565b5b6000610c3585828601610a21565b9250506020610c4685828601610bfb565b9150509250929050565b600080fd5b600080fd5b600080fd5b60008083601f840112610c7557610c74610c50565b5b8235905067ffffffffffffffff811115610c9257610c91610c55565b5b602083019150836040820283011115610cae57610cad610c5a565b5b9250929050565b600080600060408486031215610cce57610ccd6109f6565b5b6000610cdc86828701610a21565b935050602084013567ffffffffffffffff811115610cfd57610cfc6109fb565b5b610d0986828701610c5f565b92509250509250925092565b7f4e487b7100000000000000000000000000000000000000000000000000000000600052601160045260246000fd5b6000610d4f82610a00565b9150610d5a83610a00565b9250828202610d6881610a00565b91508282048414831517610d7f57610d7e610d15565b5b5092915050565b6000610d9182610a00565b9150610d9c83610a00565b9250828201905080821115610db457610db3610d15565b5b92915050565b7f4e487b7100000000000000000000000000000000000000000000000000000000600052603260045260246000fd5b610df281610a92565b8114610dfd57600080fd5b50565b600081359050610e0f81610de9565b92915050565b600060208284031215610e2b57610e2a6109f6565b5b6000610e3984828501610e00565b91505092915050565b6000819050919050565b610e5d610e5882610a00565b610e42565b82525050565b60008160601b9050919050565b6000610e7b82610e63565b9050919050565b6000610e8d82610e70565b9050919050565b610ea5610ea082610a92565b610e82565b82525050565b6000610eb78286610e4c565b602082019150610ec78285610e4c565b602082019150610ed78284610e94565b601482019150819050949350505050565b6000610ef382610a00565b91507fffffffffffffffffffffffffffffffffffffffffffffffffffffffffffffffff8203610f2557610f24610d15565b5b600182019050919050565b6000606082019050610f456000830186610a63565b610f526020830185610aa4565b610f5f6040830184610a63565b949350505050565b6000604082019050610f7c6000830185610a63565b610f896020830184610b3c565b939250505056fea2646970667358221220fd9b2c3dcd85bdc568b94e96812556cdce3d5821e59b3f13afe3c3d21bd7ac5664736f6c63430008110033",
  "immutableReferences": {},
  "source": "//SPDX-License-Identifier: UNLICENSED\npragma solidity 0.8.17;\n\ncontract Donations {\n    \n    enum State {Open, Closed, Expired}\n\n    struct Campaign {\n        uint id;\n        uint target;\n        uint fundsRaised;\n        uint deposit;\n        address createdBy;\n        address payable vendor;\n        uint donationsHash;\n        State state;\n    }\n\n    struct Donor{\n        address donorAddress;\n        uint donatedAmount;\n    }\n\n    mapping(uint => Campaign) public campaigns;\n    uint public counter;\n    uint public percentToDeposit;\n    \n    constructor (uint percentToDepositValue) {\n        counter = 0;\n        percentToDeposit = percentToDepositValue;\n    }  \n\n    event Donation(uint campaignId, address _from, uint _value);\n    event StateTransition(uint campaignId, State state);\n\n    modifier validTransition(uint campaignId, State state) {\n        require(campaigns[campaignId].state == state);\n        _;\n    }\n\n    modifier validCreateCampaign(uint amountRequired) {\n        require(amountRequired*percentToDeposit == msg.value*100);\n        _;\n    }\n\n    modifier validDonation(uint campaignId) {\n        require(campaigns[campaignId].fundsRaised + msg.value <= campaigns[campaignId].target);\n        _;\n    }\n\n    modifier validExpireCampaign(uint campaignId, Donor[] calldata donors) {\n        require(campaigns[campaignId].createdBy == msg.sender);\n        uint hashValue;\n        for (uint i=0;i<donors.length;i++){\n            hashValue = uint(keccak256(abi.encodePacked(hashValue,donors[i].donatedAmount,donors[i].donorAddress)));\n        }\n        require(hashValue == campaigns[campaignId].donationsHash);\n        _;\n    }\n\n    function createCampaign(uint amountRequired, address payable vendor) public payable validCreateCampaign(amountRequired) {\n        counter = counter + 1;\n        Campaign storage campaign = campaigns[counter];\n        campaign.id = counter;\n        campaign.target = amountRequired;            \n        campaign.fundsRaised = 0;\n        campaign.createdBy = msg.sender;\n        campaign.vendor = vendor;\n        campaign.state = State.Open;\n        campaign.deposit = msg.value;\n        campaigns[counter] = campaign;\n    }\n\n    function donate(uint campaignId) public payable validTransition(campaignId, State.Open) validDonation(campaignId) {\n        Campaign storage campaign = campaigns[campaignId];\n        campaign.fundsRaised += msg.value;\n\n        campaign.donationsHash = uint(keccak256(abi.encodePacked(campaign.donationsHash,msg.value,msg.sender)));\n        emit Donation(campaignId, msg.sender, msg.value);\n\n        if (campaign.fundsRaised == campaign.target){\n            campaign.vendor.transfer(campaign.target);\n            payable(campaign.createdBy).transfer(campaign.deposit);\n            closeCampaign(campaign,State.Closed);\n        }\n    }\n\n    function expireCampaign(uint campaignId, Donor[] calldata donors) public validTransition(campaignId,State.Open) validExpireCampaign(campaignId,donors) {\n        Campaign storage campaign = campaigns[campaignId];\n        for (uint i=0;i<donors.length;i++){\n            payable(donors[i].donorAddress).transfer(donors[i].donatedAmount);\n        }\n        payable(campaign.createdBy).transfer(campaign.deposit);\n        closeCampaign(campaign, State.Expired);\n    }\n\n    function closeCampaign(Campaign storage campaign, State state) private {\n        campaign.state = state;\n        emit StateTransition(campaign.id, state);\n    }\n}",
  "sourcePath": "/home/eagle/MS/Courses/Blockchain/BlockchainProject/donation-contract/contracts/Donations.sol",
  "compiler": {
    "name": "solc",
    "version": "0.8.17+commit.8df45f5f.Emscripten.clang"
  },
  "schemaVersion": "3.4.10",
  "updatedAt": "2022-11-08T20:03:42.683Z",
  "networkType": "ethereum",
  "devdoc": {
    "kind": "dev",
    "methods": {},
    "version": 1
  },
  "userdoc": {
    "kind": "user",
    "methods": {},
    "version": 1
  }
}