{
  "contractName": "Donations",
  "abi": [
    {
      "inputs": [
        {
          "internalType": "uint256",
          "name": "total",
          "type": "uint256"
        }
      ],
      "stateMutability": "nonpayable",
      "type": "constructor"
    },
    {
      "anonymous": false,
      "inputs": [
        {
          "indexed": true,
          "internalType": "address",
          "name": "tokenOwner",
          "type": "address"
        },
        {
          "indexed": true,
          "internalType": "address",
          "name": "spender",
          "type": "address"
        },
        {
          "indexed": false,
          "internalType": "uint256",
          "name": "tokens",
          "type": "uint256"
        }
      ],
      "name": "Approval",
      "type": "event"
    },
    {
      "anonymous": false,
      "inputs": [
        {
          "indexed": false,
          "internalType": "uint256",
          "name": "campaignId",
          "type": "uint256"
        },
        {
          "indexed": false,
          "internalType": "uint256",
          "name": "target",
          "type": "uint256"
        },
        {
          "indexed": false,
          "internalType": "uint256",
          "name": "deposit",
          "type": "uint256"
        },
        {
          "indexed": false,
          "internalType": "address",
          "name": "createdBy",
          "type": "address"
        },
        {
          "indexed": false,
          "internalType": "address",
          "name": "vendor",
          "type": "address"
        }
      ],
      "name": "CreateCampaign",
      "type": "event"
    },
    {
      "anonymous": false,
      "inputs": [
        {
          "indexed": false,
          "internalType": "uint256",
          "name": "campaignId",
          "type": "uint256"
        },
        {
          "indexed": false,
          "internalType": "address",
          "name": "from",
          "type": "address"
        },
        {
          "indexed": false,
          "internalType": "uint256",
          "name": "numTokens",
          "type": "uint256"
        }
      ],
      "name": "Donation",
      "type": "event"
    },
    {
      "anonymous": false,
      "inputs": [
        {
          "indexed": false,
          "internalType": "uint256",
          "name": "numTokens",
          "type": "uint256"
        }
      ],
      "name": "GetBalance",
      "type": "event"
    },
    {
      "anonymous": false,
      "inputs": [
        {
          "indexed": false,
          "internalType": "address",
          "name": "to_",
          "type": "address"
        }
      ],
      "name": "TransferToken",
      "type": "event"
    },
    {
      "anonymous": false,
      "inputs": [
        {
          "indexed": false,
          "internalType": "uint256",
          "name": "campaignId",
          "type": "uint256"
        },
        {
          "indexed": false,
          "internalType": "enum Donations.Status",
          "name": "status",
          "type": "uint8"
        }
      ],
      "name": "Transition",
      "type": "event"
    },
    {
      "inputs": [
        {
          "internalType": "uint256",
          "name": "",
          "type": "uint256"
        }
      ],
      "name": "campaigns",
      "outputs": [
        {
          "internalType": "uint256",
          "name": "id",
          "type": "uint256"
        },
        {
          "internalType": "uint256",
          "name": "target",
          "type": "uint256"
        },
        {
          "internalType": "uint256",
          "name": "fundsRaised",
          "type": "uint256"
        },
        {
          "internalType": "uint256",
          "name": "deposit",
          "type": "uint256"
        },
        {
          "internalType": "address",
          "name": "createdBy",
          "type": "address"
        },
        {
          "internalType": "address payable",
          "name": "vendor",
          "type": "address"
        },
        {
          "internalType": "uint256",
          "name": "donationsHash",
          "type": "uint256"
        },
        {
          "internalType": "enum Donations.Status",
          "name": "status",
          "type": "uint8"
        }
      ],
      "stateMutability": "view",
      "type": "function",
      "constant": true
    },
    {
      "inputs": [],
      "name": "counter",
      "outputs": [
        {
          "internalType": "uint256",
          "name": "",
          "type": "uint256"
        }
      ],
      "stateMutability": "view",
      "type": "function",
      "constant": true
    },
    {
      "inputs": [],
      "name": "decimals",
      "outputs": [
        {
          "internalType": "uint8",
          "name": "",
          "type": "uint8"
        }
      ],
      "stateMutability": "view",
      "type": "function",
      "constant": true
    },
    {
      "inputs": [],
      "name": "name",
      "outputs": [
        {
          "internalType": "string",
          "name": "",
          "type": "string"
        }
      ],
      "stateMutability": "view",
      "type": "function",
      "constant": true
    },
    {
      "inputs": [],
      "name": "percentToDeposit",
      "outputs": [
        {
          "internalType": "uint256",
          "name": "",
          "type": "uint256"
        }
      ],
      "stateMutability": "view",
      "type": "function",
      "constant": true
    },
    {
      "inputs": [],
      "name": "symbol",
      "outputs": [
        {
          "internalType": "string",
          "name": "",
          "type": "string"
        }
      ],
      "stateMutability": "view",
      "type": "function",
      "constant": true
    },
    {
      "inputs": [],
      "name": "totalSupply",
      "outputs": [
        {
          "internalType": "uint256",
          "name": "",
          "type": "uint256"
        }
      ],
      "stateMutability": "view",
      "type": "function",
      "constant": true
    },
    {
      "inputs": [
        {
          "internalType": "address",
          "name": "account",
          "type": "address"
        }
      ],
      "name": "DtcBalance",
      "outputs": [
        {
          "internalType": "uint256",
          "name": "",
          "type": "uint256"
        }
      ],
      "stateMutability": "view",
      "type": "function",
      "constant": true
    },
    {
      "inputs": [
        {
          "internalType": "uint256",
          "name": "campaignId",
          "type": "uint256"
        },
        {
          "internalType": "uint256",
          "name": "numTokens",
          "type": "uint256"
        }
      ],
      "name": "donate",
      "outputs": [],
      "stateMutability": "payable",
      "type": "function",
      "payable": true
    },
    {
      "inputs": [],
      "name": "transfertoken",
      "outputs": [],
      "stateMutability": "payable",
      "type": "function",
      "payable": true
    },
    {
      "inputs": [
        {
          "internalType": "address",
          "name": "account",
          "type": "address"
        },
        {
          "internalType": "uint256",
          "name": "amount",
          "type": "uint256"
        }
      ],
      "name": "transfertokentovendor",
      "outputs": [],
      "stateMutability": "payable",
      "type": "function",
      "payable": true
    },
    {
      "inputs": [
        {
          "internalType": "address",
          "name": "delegate",
          "type": "address"
        },
        {
          "internalType": "uint256",
          "name": "numTokens",
          "type": "uint256"
        }
      ],
      "name": "approve",
      "outputs": [
        {
          "internalType": "bool",
          "name": "",
          "type": "bool"
        }
      ],
      "stateMutability": "nonpayable",
      "type": "function"
    },
    {
      "inputs": [
        {
          "internalType": "address",
          "name": "owner",
          "type": "address"
        },
        {
          "internalType": "address",
          "name": "delegate",
          "type": "address"
        }
      ],
      "name": "allowance",
      "outputs": [
        {
          "internalType": "uint256",
          "name": "",
          "type": "uint256"
        }
      ],
      "stateMutability": "view",
      "type": "function",
      "constant": true
    },
    {
      "inputs": [
        {
          "internalType": "uint256",
          "name": "amountRequired",
          "type": "uint256"
        },
        {
          "internalType": "address payable",
          "name": "vendor",
          "type": "address"
        }
      ],
      "name": "createCampaign",
      "outputs": [],
      "stateMutability": "payable",
      "type": "function",
      "payable": true
    },
    {
      "inputs": [
        {
          "internalType": "uint256",
          "name": "campaignId",
          "type": "uint256"
        },
        {
          "components": [
            {
              "internalType": "address",
              "name": "donorAddress",
              "type": "address"
            },
            {
              "internalType": "uint256",
              "name": "donatedAmount",
              "type": "uint256"
            }
          ],
          "internalType": "struct Donations.Donor[]",
          "name": "donors",
          "type": "tuple[]"
        }
      ],
      "name": "expireCampaign",
      "outputs": [],
      "stateMutability": "nonpayable",
      "type": "function"
    }
  ],
  "bytecode": "0x60806040523480156200001157600080fd5b5060405162001988380380620019888339818101604052810190620000379190620000ce565b60006004819055508060028190555033600660006101000a81548173ffffffffffffffffffffffffffffffffffffffff021916908373ffffffffffffffffffffffffffffffffffffffff1602179055505062000100565b600080fd5b6000819050919050565b620000a88162000093565b8114620000b457600080fd5b50565b600081519050620000c8816200009d565b92915050565b600060208284031215620000e757620000e66200008e565b5b6000620000f784828501620000b7565b91505092915050565b61187880620001106000396000f3fe6080604052600436106100e85760003560e01c806332ba9cce1161008a5780639c56e2b5116100595780639c56e2b5146102e5578063b03b00f8146102ef578063d1e7f98114610318578063dd62ed3e14610334576100e8565b806332ba9cce1461023657806361bc221a146102525780637a5cd7d21461027d57806395d89b41146102ba576100e8565b8063141961bc116100c6578063141961bc1461017157806318160ddd146101b55780631be021d2146101e0578063313ce5671461020b576100e8565b806306fdde03146100ed578063095ea7b3146101185780630cdd53f614610155575b600080fd5b3480156100f957600080fd5b50610102610371565b60405161010f919061106b565b60405180910390f35b34801561012457600080fd5b5061013f600480360381019061013a919061112b565b6103aa565b60405161014c9190611186565b60405180910390f35b61016f600480360381019061016a91906111a1565b61049c565b005b34801561017d57600080fd5b50610198600480360381019061019391906111e1565b610686565b6040516101ac9897969594939291906112c4565b60405180910390f35b3480156101c157600080fd5b506101ca61071b565b6040516101d79190611342565b60405180910390f35b3480156101ec57600080fd5b506101f5610725565b6040516102029190611342565b60405180910390f35b34801561021757600080fd5b5061022061072b565b60405161022d9190611379565b60405180910390f35b610250600480360381019061024b91906113c0565b610730565b005b34801561025e57600080fd5b50610267610ac0565b6040516102749190611342565b60405180910390f35b34801561028957600080fd5b506102a4600480360381019061029f9190611400565b610ac6565b6040516102b19190611342565b60405180910390f35b3480156102c657600080fd5b506102cf610b6e565b6040516102dc919061106b565b60405180910390f35b6102ed610ba7565b005b3480156102fb57600080fd5b5061031660048036038101906103119190611492565b610cd9565b005b610332600480360381019061032d919061112b565b610dfd565b005b34801561034057600080fd5b5061035b600480360381019061035691906114f2565b610e94565b6040516103689190611342565b60405180910390f35b6040518060400160405280600781526020017f4d79546f6b656e0000000000000000000000000000000000000000000000000081525081565b600081600160003373ffffffffffffffffffffffffffffffffffffffff1673ffffffffffffffffffffffffffffffffffffffff16815260200190815260200160002060008573ffffffffffffffffffffffffffffffffffffffff1673ffffffffffffffffffffffffffffffffffffffff168152602001908152602001600020819055508273ffffffffffffffffffffffffffffffffffffffff163373ffffffffffffffffffffffffffffffffffffffff167f8c5be1e5ebec7d5bd14f71427d1e84f3dd0314c0f7b2291e5b200ac8c7c3b9258460405161048a9190611342565b60405180910390a36001905092915050565b600060036000848152602001908152602001600020905080600101548282600201546104c89190611561565b11156104d357600080fd5b818160020160008282546104e79190611561565b9250508190555061053f826000803373ffffffffffffffffffffffffffffffffffffffff1673ffffffffffffffffffffffffffffffffffffffff16815260200190815260200160002054610f1b90919063ffffffff16565b6000803373ffffffffffffffffffffffffffffffffffffffff1673ffffffffffffffffffffffffffffffffffffffff1681526020019081526020016000208190555080600601546001836105939190611561565b336040516020016105a6939291906115fe565b6040516020818303038152906040528051906020012060001c81600601819055507ff8365d4d9099667b0e8a25091b48c493c5bc6e86ec76cff2edac212a8e776b408333846040516105fa9392919061163b565b60405180910390a18060010154816002015403610681576106438160050160009054906101000a900473ffffffffffffffffffffffffffffffffffffffff168260010154610dfd565b6106758160040160009054906101000a900473ffffffffffffffffffffffffffffffffffffffff168260030154610dfd565b610680816001610f42565b5b505050565b60036020528060005260406000206000915090508060000154908060010154908060020154908060030154908060040160009054906101000a900473ffffffffffffffffffffffffffffffffffffffff16908060050160009054906101000a900473ffffffffffffffffffffffffffffffffffffffff16908060060154908060070160009054906101000a900460ff16905088565b6000600254905090565b60055481565b600081565b60006002905060016004546107459190611561565b60048190555060006003600060045481526020019081526020016000209050600454816000018190555083816001018190555060008160020181905550338160040160006101000a81548173ffffffffffffffffffffffffffffffffffffffff021916908373ffffffffffffffffffffffffffffffffffffffff160217905550828160050160006101000a81548173ffffffffffffffffffffffffffffffffffffffff021916908373ffffffffffffffffffffffffffffffffffffffff16021790555060008160070160006101000a81548160ff021916908360028111156108305761082f61124d565b5b021790555081816003018190555080600360006004548152602001908152602001600020600082015481600001556001820154816001015560028201548160020155600382015481600301556004820160009054906101000a900473ffffffffffffffffffffffffffffffffffffffff168160040160006101000a81548173ffffffffffffffffffffffffffffffffffffffff021916908373ffffffffffffffffffffffffffffffffffffffff1602179055506005820160009054906101000a900473ffffffffffffffffffffffffffffffffffffffff168160050160006101000a81548173ffffffffffffffffffffffffffffffffffffffff021916908373ffffffffffffffffffffffffffffffffffffffff160217905550600682015481600601556007820160009054906101000a900460ff168160070160006101000a81548160ff0219169083600281111561098c5761098b61124d565b5b02179055509050506109e5826000803373ffffffffffffffffffffffffffffffffffffffff1673ffffffffffffffffffffffffffffffffffffffff16815260200190815260200160002054610f1b90919063ffffffff16565b6000803373ffffffffffffffffffffffffffffffffffffffff1673ffffffffffffffffffffffffffffffffffffffff168152602001908152602001600020819055507fdd464ef0714b8e2c9e17a85262fec4828985af1809cb31d22e902420b1a45c128160000154826001015483600301548460040160009054906101000a900473ffffffffffffffffffffffffffffffffffffffff168560050160009054906101000a900473ffffffffffffffffffffffffffffffffffffffff16604051610ab29594939291906116d1565b60405180910390a150505050565b60045481565b6000600660009054906101000a900473ffffffffffffffffffffffffffffffffffffffff1673ffffffffffffffffffffffffffffffffffffffff168273ffffffffffffffffffffffffffffffffffffffff1603610b27576002549050610b69565b6000808373ffffffffffffffffffffffffffffffffffffffff1673ffffffffffffffffffffffffffffffffffffffff1681526020019081526020016000205490505b919050565b6040518060400160405280600381526020017f445443000000000000000000000000000000000000000000000000000000000081525081565b6000601490506000803373ffffffffffffffffffffffffffffffffffffffff1673ffffffffffffffffffffffffffffffffffffffff16815260200190815260200160002054811015610bf857600080fd5b610c49816000803373ffffffffffffffffffffffffffffffffffffffff1673ffffffffffffffffffffffffffffffffffffffff16815260200190815260200160002054610faf90919063ffffffff16565b6000803373ffffffffffffffffffffffffffffffffffffffff1673ffffffffffffffffffffffffffffffffffffffff1681526020019081526020016000208190555080600254610c999190611724565b6002819055507fdb8a5ca3ffac31623a1e8a6390ac397031e17cf1335aae2088619ff47d91102a30604051610cce9190611758565b60405180910390a150565b826000806002811115610cef57610cee61124d565b5b6003600084815260200190815260200160002060070160009054906101000a900460ff166002811115610d2557610d2461124d565b5b14610d2f57600080fd5b600060036000878152602001908152602001600020905060005b85859050811015610db757610da4868683818110610d6a57610d69611773565b5b9050604002016000016020810190610d829190611400565b878784818110610d9557610d94611773565b5b90506040020160200135610dfd565b8080610daf906117a2565b915050610d49565b50610dea8160040160009054906101000a900473ffffffffffffffffffffffffffffffffffffffff168260030154610dfd565b610df5816002610f42565b505050505050565b610e4e816000808573ffffffffffffffffffffffffffffffffffffffff1673ffffffffffffffffffffffffffffffffffffffff16815260200190815260200160002054610faf90919063ffffffff16565b6000808473ffffffffffffffffffffffffffffffffffffffff1673ffffffffffffffffffffffffffffffffffffffff168152602001908152602001600020819055505050565b6000600160008473ffffffffffffffffffffffffffffffffffffffff1673ffffffffffffffffffffffffffffffffffffffff16815260200190815260200160002060008373ffffffffffffffffffffffffffffffffffffffff1673ffffffffffffffffffffffffffffffffffffffff16815260200190815260200160002054905092915050565b600082821115610f2e57610f2d6117ea565b5b8183610f3a9190611724565b905092915050565b808260070160006101000a81548160ff02191690836002811115610f6957610f6861124d565b5b02179055507f4385d908f4912090c91def05ee37beafbc0e6df1d57f4a32396d602ebbce93a0826000015482604051610fa3929190611819565b60405180910390a15050565b6000808284610fbe9190611561565b905083811015610fd157610fd06117ea565b5b8091505092915050565b600081519050919050565b600082825260208201905092915050565b60005b83811015611015578082015181840152602081019050610ffa565b60008484015250505050565b6000601f19601f8301169050919050565b600061103d82610fdb565b6110478185610fe6565b9350611057818560208601610ff7565b61106081611021565b840191505092915050565b600060208201905081810360008301526110858184611032565b905092915050565b600080fd5b600080fd5b600073ffffffffffffffffffffffffffffffffffffffff82169050919050565b60006110c282611097565b9050919050565b6110d2816110b7565b81146110dd57600080fd5b50565b6000813590506110ef816110c9565b92915050565b6000819050919050565b611108816110f5565b811461111357600080fd5b50565b600081359050611125816110ff565b92915050565b600080604083850312156111425761114161108d565b5b6000611150858286016110e0565b925050602061116185828601611116565b9150509250929050565b60008115159050919050565b6111808161116b565b82525050565b600060208201905061119b6000830184611177565b92915050565b600080604083850312156111b8576111b761108d565b5b60006111c685828601611116565b92505060206111d785828601611116565b9150509250929050565b6000602082840312156111f7576111f661108d565b5b600061120584828501611116565b91505092915050565b611217816110f5565b82525050565b611226816110b7565b82525050565b600061123782611097565b9050919050565b6112478161122c565b82525050565b7f4e487b7100000000000000000000000000000000000000000000000000000000600052602160045260246000fd5b6003811061128d5761128c61124d565b5b50565b600081905061129e8261127c565b919050565b60006112ae82611290565b9050919050565b6112be816112a3565b82525050565b6000610100820190506112da600083018b61120e565b6112e7602083018a61120e565b6112f4604083018961120e565b611301606083018861120e565b61130e608083018761121d565b61131b60a083018661123e565b61132860c083018561120e565b61133560e08301846112b5565b9998505050505050505050565b6000602082019050611357600083018461120e565b92915050565b600060ff82169050919050565b6113738161135d565b82525050565b600060208201905061138e600083018461136a565b92915050565b61139d8161122c565b81146113a857600080fd5b50565b6000813590506113ba81611394565b92915050565b600080604083850312156113d7576113d661108d565b5b60006113e585828601611116565b92505060206113f6858286016113ab565b9150509250929050565b6000602082840312156114165761141561108d565b5b6000611424848285016110e0565b91505092915050565b600080fd5b600080fd5b600080fd5b60008083601f8401126114525761145161142d565b5b8235905067ffffffffffffffff81111561146f5761146e611432565b5b60208301915083604082028301111561148b5761148a611437565b5b9250929050565b6000806000604084860312156114ab576114aa61108d565b5b60006114b986828701611116565b935050602084013567ffffffffffffffff8111156114da576114d9611092565b5b6114e68682870161143c565b92509250509250925092565b600080604083850312156115095761150861108d565b5b6000611517858286016110e0565b9250506020611528858286016110e0565b9150509250929050565b7f4e487b7100000000000000000000000000000000000000000000000000000000600052601160045260246000fd5b600061156c826110f5565b9150611577836110f5565b925082820190508082111561158f5761158e611532565b5b92915050565b6000819050919050565b6115b06115ab826110f5565b611595565b82525050565b60008160601b9050919050565b60006115ce826115b6565b9050919050565b60006115e0826115c3565b9050919050565b6115f86115f3826110b7565b6115d5565b82525050565b600061160a828661159f565b60208201915061161a828561159f565b60208201915061162a82846115e7565b601482019150819050949350505050565b6000606082019050611650600083018661120e565b61165d602083018561121d565b61166a604083018461120e565b949350505050565b6000819050919050565b600061169761169261168d84611097565b611672565b611097565b9050919050565b60006116a98261167c565b9050919050565b60006116bb8261169e565b9050919050565b6116cb816116b0565b82525050565b600060a0820190506116e6600083018861120e565b6116f3602083018761120e565b611700604083018661120e565b61170d606083018561121d565b61171a60808301846116c2565b9695505050505050565b600061172f826110f5565b915061173a836110f5565b925082820390508181111561175257611751611532565b5b92915050565b600060208201905061176d600083018461121d565b92915050565b7f4e487b7100000000000000000000000000000000000000000000000000000000600052603260045260246000fd5b60006117ad826110f5565b91507fffffffffffffffffffffffffffffffffffffffffffffffffffffffffffffffff82036117df576117de611532565b5b600182019050919050565b7f4e487b7100000000000000000000000000000000000000000000000000000000600052600160045260246000fd5b600060408201905061182e600083018561120e565b61183b60208301846112b5565b939250505056fea26469706673582212200ac37c137d191d7dd0d5f973584b83e1a15d5e3a5265388bf87e757ffcf3e6c364736f6c63430008110033",
  "immutableReferences": {},
  "source": "//SPDX-License-Identifier: UNLICENSED\r\npragma solidity 0.8.17;\r\n\r\ncontract Donations {\r\n    \r\n    enum Status {OPEN, CLOSED, EXPIRED}\r\n    string public constant name = \"MyToken\";\r\n    string public constant symbol = \"DTC\";\r\n    uint8 public constant decimals = 0;  \r\n\r\n    mapping(address => uint256) balances;\r\n\r\n    mapping(address => mapping (address => uint256)) allowed;\r\n    \r\n    uint256 totalSupply_;\r\n\r\n    using SafeMath for uint256;\r\n\r\n    struct Campaign {\r\n        uint id;\r\n        uint target;\r\n        uint fundsRaised;\r\n        uint deposit;\r\n        address createdBy;\r\n        address payable vendor;\r\n        uint donationsHash;\r\n        Status status;\r\n    }\r\n\r\n    struct Donor{\r\n        address donorAddress;\r\n        uint donatedAmount;\r\n    }\r\n\r\n    mapping(uint => Campaign) public campaigns;\r\n    uint public counter;\r\n    uint public percentToDeposit;\r\n    address deployer;\r\n    //address receiver;\r\n    constructor (uint256 total) {\r\n        counter = 0;\r\n        totalSupply_ = total;\r\n        deployer = msg.sender;\r\n    }  \r\n\r\n    //event Donation(uint campaignId, address _from, uint _value);\r\n    event Transition(uint campaignId, Status status);\r\n    event CreateCampaign(uint campaignId, uint target, uint deposit, address createdBy, address vendor);\r\n    event Approval(address indexed tokenOwner, address indexed spender, uint tokens);\r\n    event Donation(uint campaignId,address from, uint numTokens);\r\n    event TransferToken(address to_);\r\n    event GetBalance(uint numTokens);\r\n    //event Transfer(address indexed from, address indexed to, uint tokens);\r\n    \r\n\r\n    modifier validTransition(uint campaignId, Status status) {\r\n        require(campaigns[campaignId].status == status);\r\n        _;\r\n    }\r\n\r\n    modifier validCreateCampaign(uint amountRequired) {\r\n        require(amountRequired*percentToDeposit == msg.value*100);\r\n        _;\r\n    }\r\n\r\n    modifier validDonation(uint campaignId) {\r\n        require(campaigns[campaignId].fundsRaised + msg.value <= campaigns[campaignId].target);\r\n        _;\r\n    }\r\n\r\n    modifier validExpireCampaign(uint campaignId, Donor[] calldata donors) {\r\n        require(campaigns[campaignId].createdBy == msg.sender);\r\n        uint hashValue;\r\n        for (uint i=0;i<donors.length;i++){\r\n            hashValue = uint(keccak256(abi.encodePacked(hashValue,donors[i].donatedAmount,donors[i].donorAddress)));\r\n        }\r\n        require(hashValue == campaigns[campaignId].donationsHash);\r\n        _;\r\n    }\r\n\r\n    //ERC20 functions\r\n     function totalSupply() public view returns (uint256) {\r\n\treturn totalSupply_;\r\n    }\r\n    \r\n    function DtcBalance(address account) public view returns (uint){\r\n        //emit GetBalance(balances[msg.sender]);\r\n        if (account == deployer){\r\n            return totalSupply_;\r\n        }\r\n        return balances[account];\r\n    }\r\n\r\n    function donate(uint campaignId, uint numTokens) public payable {\r\n        //require(numTokens <= balances[msg.sender]);\r\n        Campaign storage campaign = campaigns[campaignId];\r\n        require((campaign.fundsRaised+numTokens) <= campaign.target);\r\n        campaign.fundsRaised += numTokens;\r\n       // }\r\n        balances[msg.sender] = balances[msg.sender].sub(numTokens);\r\n        campaign.donationsHash = uint(keccak256(abi.encodePacked(campaign.donationsHash,numTokens+1,msg.sender)));\r\n        emit Donation(campaignId,msg.sender, numTokens);\r\n        if (campaign.fundsRaised == campaign.target){\r\n            transfertokentovendor(campaign.vendor,campaign.target);\r\n            transfertokentovendor(campaign.createdBy,campaign.deposit);\r\n            closeCampaign(campaign,Status.CLOSED);\r\n        }\r\n    }\r\n\r\n    function transfertoken() public payable {\r\n        uint numTokens=20;\r\n        require(numTokens >= balances[msg.sender]);\r\n        balances[msg.sender] = balances[msg.sender].add(numTokens);\r\n        totalSupply_=totalSupply_-numTokens;\r\n        emit TransferToken(address(this));\r\n        //return true;\r\n    }\r\n    function transfertokentovendor(address account,uint amount) public payable {\r\n        balances[account] = balances[account].add(amount);\r\n\r\n        //return true;\r\n    }\r\n\r\n    function approve(address delegate, uint numTokens) public returns (bool) {\r\n        allowed[msg.sender][delegate] = numTokens;\r\n        emit Approval(msg.sender, delegate, numTokens);\r\n        return true;\r\n    }\r\n\r\n    function allowance(address owner, address delegate) public view returns (uint) {\r\n        return allowed[owner][delegate];\r\n    }\r\n\r\n\r\n    //Internal Functions\r\n\r\n    function createCampaign(uint amountRequired, address payable vendor) public payable {\r\n        uint deposit1=2;\r\n        counter = counter + 1;\r\n        Campaign storage campaign = campaigns[counter];\r\n        campaign.id = counter;\r\n        campaign.target = amountRequired;            \r\n        campaign.fundsRaised = 0;\r\n        campaign.createdBy = msg.sender;\r\n        campaign.vendor = vendor;\r\n        campaign.status = Status.OPEN;\r\n        campaign.deposit = deposit1;\r\n        campaigns[counter] = campaign;\r\n        //deposit1=(percentToDeposit*amountRequired)/100;\r\n        balances[msg.sender] = balances[msg.sender].sub(deposit1);\r\n        emit CreateCampaign(campaign.id,campaign.target,campaign.deposit,campaign.createdBy,campaign.vendor);\r\n    }\r\n\r\n\r\n    function expireCampaign(uint campaignId, Donor[] calldata donors) public validTransition(campaignId,Status.OPEN) {\r\n        Campaign storage campaign = campaigns[campaignId];\r\n        for (uint i=0;i<donors.length;i++){\r\n            transfertokentovendor(donors[i].donorAddress, donors[i].donatedAmount);\r\n        }\r\n        transfertokentovendor(campaign.createdBy, campaign.deposit);\r\n        closeCampaign(campaign, Status.EXPIRED);\r\n    }\r\n\r\n    function closeCampaign(Campaign storage campaign, Status status) private {\r\n        campaign.status = status;\r\n        emit Transition(campaign.id, status);\r\n    }\r\n}\r\n\r\nlibrary SafeMath { \r\n    function sub(uint256 a, uint256 b) internal pure returns (uint256) {\r\n      assert(b <= a);\r\n      return a - b;\r\n    }\r\n    \r\n    function add(uint256 a, uint256 b) internal pure returns (uint256) {\r\n      uint256 c = a + b;\r\n      assert(c >= a);\r\n      return c;\r\n    }\r\n}",
  "sourcePath": "/home/eagle/MS/Courses/Blockchain/BlockchainProject/donation-contract/contracts/Donations.sol",
  "compiler": {
    "name": "solc",
    "version": "0.8.17+commit.8df45f5f.Emscripten.clang"
  },
  "schemaVersion": "3.4.10",
  "updatedAt": "2022-12-06T17:52:36.434Z",
  "networkType": "ethereum",
  "devdoc": {
    "kind": "dev",
    "methods": {},
    "version": 1
  },
  "userdoc": {
    "kind": "user",
    "methods": {},
    "version": 1
  }
}