{
  "contractName": "Donations",
  "abi": [
    {
      "inputs": [
        {
          "internalType": "uint256",
          "name": "percentToDepositValue",
          "type": "uint256"
        },
        {
          "internalType": "uint256",
          "name": "total",
          "type": "uint256"
        }
      ],
      "stateMutability": "nonpayable",
      "type": "constructor"
    },
    {
      "anonymous": false,
      "inputs": [
        {
          "indexed": true,
          "internalType": "address",
          "name": "tokenOwner",
          "type": "address"
        },
        {
          "indexed": true,
          "internalType": "address",
          "name": "spender",
          "type": "address"
        },
        {
          "indexed": false,
          "internalType": "uint256",
          "name": "tokens",
          "type": "uint256"
        }
      ],
      "name": "Approval",
      "type": "event"
    },
    {
      "anonymous": false,
      "inputs": [
        {
          "indexed": false,
          "internalType": "uint256",
          "name": "campaignId",
          "type": "uint256"
        },
        {
          "indexed": false,
          "internalType": "uint256",
          "name": "target",
          "type": "uint256"
        },
        {
          "indexed": false,
          "internalType": "uint256",
          "name": "deposit",
          "type": "uint256"
        },
        {
          "indexed": false,
          "internalType": "address",
          "name": "createdBy",
          "type": "address"
        },
        {
          "indexed": false,
          "internalType": "address",
          "name": "vendor",
          "type": "address"
        }
      ],
      "name": "CreateCampaign",
      "type": "event"
    },
    {
      "anonymous": false,
      "inputs": [
        {
          "indexed": false,
          "internalType": "uint256",
          "name": "campaignId",
          "type": "uint256"
        },
        {
          "indexed": false,
          "internalType": "address",
          "name": "from",
          "type": "address"
        },
        {
          "indexed": false,
          "internalType": "uint256",
          "name": "numTokens",
          "type": "uint256"
        }
      ],
      "name": "Donation",
      "type": "event"
    },
    {
      "anonymous": false,
      "inputs": [
        {
          "indexed": false,
          "internalType": "uint256",
          "name": "numTokens",
          "type": "uint256"
        }
      ],
      "name": "GetBalance",
      "type": "event"
    },
    {
      "anonymous": false,
      "inputs": [
        {
          "indexed": false,
          "internalType": "address",
          "name": "to_",
          "type": "address"
        }
      ],
      "name": "TransferToken",
      "type": "event"
    },
    {
      "anonymous": false,
      "inputs": [
        {
          "indexed": false,
          "internalType": "uint256",
          "name": "campaignId",
          "type": "uint256"
        },
        {
          "indexed": false,
          "internalType": "enum Donations.Status",
          "name": "status",
          "type": "uint8"
        }
      ],
      "name": "Transition",
      "type": "event"
    },
    {
      "inputs": [
        {
          "internalType": "uint256",
          "name": "",
          "type": "uint256"
        }
      ],
      "name": "campaigns",
      "outputs": [
        {
          "internalType": "uint256",
          "name": "id",
          "type": "uint256"
        },
        {
          "internalType": "uint256",
          "name": "target",
          "type": "uint256"
        },
        {
          "internalType": "uint256",
          "name": "fundsRaised",
          "type": "uint256"
        },
        {
          "internalType": "uint256",
          "name": "deposit",
          "type": "uint256"
        },
        {
          "internalType": "address",
          "name": "createdBy",
          "type": "address"
        },
        {
          "internalType": "address payable",
          "name": "vendor",
          "type": "address"
        },
        {
          "internalType": "uint256",
          "name": "donationsHash",
          "type": "uint256"
        },
        {
          "internalType": "enum Donations.Status",
          "name": "status",
          "type": "uint8"
        }
      ],
      "stateMutability": "view",
      "type": "function",
      "constant": true
    },
    {
      "inputs": [],
      "name": "counter",
      "outputs": [
        {
          "internalType": "uint256",
          "name": "",
          "type": "uint256"
        }
      ],
      "stateMutability": "view",
      "type": "function",
      "constant": true
    },
    {
      "inputs": [],
      "name": "decimals",
      "outputs": [
        {
          "internalType": "uint8",
          "name": "",
          "type": "uint8"
        }
      ],
      "stateMutability": "view",
      "type": "function",
      "constant": true
    },
    {
      "inputs": [],
      "name": "name",
      "outputs": [
        {
          "internalType": "string",
          "name": "",
          "type": "string"
        }
      ],
      "stateMutability": "view",
      "type": "function",
      "constant": true
    },
    {
      "inputs": [],
      "name": "percentToDeposit",
      "outputs": [
        {
          "internalType": "uint256",
          "name": "",
          "type": "uint256"
        }
      ],
      "stateMutability": "view",
      "type": "function",
      "constant": true
    },
    {
      "inputs": [],
      "name": "symbol",
      "outputs": [
        {
          "internalType": "string",
          "name": "",
          "type": "string"
        }
      ],
      "stateMutability": "view",
      "type": "function",
      "constant": true
    },
    {
      "inputs": [],
      "name": "totalSupply",
      "outputs": [
        {
          "internalType": "uint256",
          "name": "",
          "type": "uint256"
        }
      ],
      "stateMutability": "view",
      "type": "function",
      "constant": true
    },
    {
      "inputs": [],
      "name": "DtcBalance",
      "outputs": [],
      "stateMutability": "nonpayable",
      "type": "function"
    },
    {
      "inputs": [
        {
          "internalType": "uint256",
          "name": "campaignId",
          "type": "uint256"
        },
        {
          "internalType": "uint256",
          "name": "numTokens",
          "type": "uint256"
        }
      ],
      "name": "donate",
      "outputs": [],
      "stateMutability": "payable",
      "type": "function",
      "payable": true
    },
    {
      "inputs": [],
      "name": "transfertoken",
      "outputs": [],
      "stateMutability": "payable",
      "type": "function",
      "payable": true
    },
    {
      "inputs": [
        {
          "internalType": "address",
          "name": "delegate",
          "type": "address"
        },
        {
          "internalType": "uint256",
          "name": "numTokens",
          "type": "uint256"
        }
      ],
      "name": "approve",
      "outputs": [
        {
          "internalType": "bool",
          "name": "",
          "type": "bool"
        }
      ],
      "stateMutability": "nonpayable",
      "type": "function"
    },
    {
      "inputs": [
        {
          "internalType": "address",
          "name": "owner",
          "type": "address"
        },
        {
          "internalType": "address",
          "name": "delegate",
          "type": "address"
        }
      ],
      "name": "allowance",
      "outputs": [
        {
          "internalType": "uint256",
          "name": "",
          "type": "uint256"
        }
      ],
      "stateMutability": "view",
      "type": "function",
      "constant": true
    },
    {
      "inputs": [
        {
          "internalType": "uint256",
          "name": "amountRequired",
          "type": "uint256"
        },
        {
          "internalType": "address payable",
          "name": "vendor",
          "type": "address"
        }
      ],
      "name": "createCampaign",
      "outputs": [],
      "stateMutability": "payable",
      "type": "function",
      "payable": true
    },
    {
      "inputs": [
        {
          "internalType": "uint256",
          "name": "campaignId",
          "type": "uint256"
        },
        {
          "components": [
            {
              "internalType": "address",
              "name": "donorAddress",
              "type": "address"
            },
            {
              "internalType": "uint256",
              "name": "donatedAmount",
              "type": "uint256"
            }
          ],
          "internalType": "struct Donations.Donor[]",
          "name": "donors",
          "type": "tuple[]"
        }
      ],
      "name": "expireCampaign",
      "outputs": [],
      "stateMutability": "nonpayable",
      "type": "function"
    }
  ],
  "bytecode": "0x60806040523480156200001157600080fd5b5060405162001aaa38038062001aaa8339818101604052810190620000379190620000da565b600060048190555081600581905550806002819055506002546000803373ffffffffffffffffffffffffffffffffffffffff1673ffffffffffffffffffffffffffffffffffffffff16815260200190815260200160002081905550505062000121565b600080fd5b6000819050919050565b620000b4816200009f565b8114620000c057600080fd5b50565b600081519050620000d481620000a9565b92915050565b60008060408385031215620000f457620000f36200009a565b5b60006200010485828601620000c3565b92505060206200011785828601620000c3565b9150509250929050565b61197980620001316000396000f3fe6080604052600436106100dd5760003560e01c8063313ce5671161007f57806395d89b411161005957806395d89b41146102895780639c56e2b5146102b4578063b03b00f8146102be578063dd62ed3e146102e7576100dd565b8063313ce5671461021757806332ba9cce1461024257806361bc221a1461025e576100dd565b8063141961bc116100bb578063141961bc1461016657806318160ddd146101aa5780631be021d2146101d5578063226cf78714610200576100dd565b806306fdde03146100e2578063095ea7b31461010d5780630cdd53f61461014a575b600080fd5b3480156100ee57600080fd5b506100f7610324565b604051610104919061112a565b60405180910390f35b34801561011957600080fd5b50610134600480360381019061012f91906111ea565b61035d565b6040516101419190611245565b60405180910390f35b610164600480360381019061015f9190611260565b61044f565b005b34801561017257600080fd5b5061018d600480360381019061018891906112a0565b6106d2565b6040516101a1989796959493929190611383565b60405180910390f35b3480156101b657600080fd5b506101bf610767565b6040516101cc9190611401565b60405180910390f35b3480156101e157600080fd5b506101ea610771565b6040516101f79190611401565b60405180910390f35b34801561020c57600080fd5b50610215610777565b005b34801561022357600080fd5b5061022c6107ee565b6040516102399190611438565b60405180910390f35b61025c6004803603810190610257919061147f565b6107f3565b005b34801561026a57600080fd5b50610273610b10565b6040516102809190611401565b60405180910390f35b34801561029557600080fd5b5061029e610b16565b6040516102ab919061112a565b60405180910390f35b6102bc610b4f565b005b3480156102ca57600080fd5b506102e560048036038101906102e09190611524565b610c81565b005b3480156102f357600080fd5b5061030e60048036038101906103099190611584565b610f53565b60405161031b9190611401565b60405180910390f35b6040518060400160405280600781526020017f4d79546f6b656e0000000000000000000000000000000000000000000000000081525081565b600081600160003373ffffffffffffffffffffffffffffffffffffffff1673ffffffffffffffffffffffffffffffffffffffff16815260200190815260200160002060008573ffffffffffffffffffffffffffffffffffffffff1673ffffffffffffffffffffffffffffffffffffffff168152602001908152602001600020819055508273ffffffffffffffffffffffffffffffffffffffff163373ffffffffffffffffffffffffffffffffffffffff167f8c5be1e5ebec7d5bd14f71427d1e84f3dd0314c0f7b2291e5b200ac8c7c3b9258460405161043d9190611401565b60405180910390a36001905092915050565b6000803373ffffffffffffffffffffffffffffffffffffffff1673ffffffffffffffffffffffffffffffffffffffff1681526020019081526020016000205481111561049a57600080fd5b6000600360008481526020019081526020016000209050818160020160008282546104c591906115f3565b9250508190555061051d826000803373ffffffffffffffffffffffffffffffffffffffff1673ffffffffffffffffffffffffffffffffffffffff16815260200190815260200160002054610fda90919063ffffffff16565b6000803373ffffffffffffffffffffffffffffffffffffffff1673ffffffffffffffffffffffffffffffffffffffff168152602001908152602001600020819055508060060154823360405160200161057893929190611690565b6040516020818303038152906040528051906020012060001c81600601819055507ff8365d4d9099667b0e8a25091b48c493c5bc6e86ec76cff2edac212a8e776b408333846040516105cc939291906116cd565b60405180910390a180600101548160020154036106cd578060050160009054906101000a900473ffffffffffffffffffffffffffffffffffffffff1673ffffffffffffffffffffffffffffffffffffffff166108fc82600101549081150290604051600060405180830381858888f19350505050158015610651573d6000803e3d6000fd5b508060040160009054906101000a900473ffffffffffffffffffffffffffffffffffffffff1673ffffffffffffffffffffffffffffffffffffffff166108fc82600301549081150290604051600060405180830381858888f193505050501580156106c0573d6000803e3d6000fd5b506106cc816001611001565b5b505050565b60036020528060005260406000206000915090508060000154908060010154908060020154908060030154908060040160009054906101000a900473ffffffffffffffffffffffffffffffffffffffff16908060050160009054906101000a900473ffffffffffffffffffffffffffffffffffffffff16908060060154908060070160009054906101000a900460ff16905088565b6000600254905090565b60055481565b7fc3c09a1e56969c59209cb6368be0ce64266343fd870df00b9a6a4e3852c10aba6000803373ffffffffffffffffffffffffffffffffffffffff1673ffffffffffffffffffffffffffffffffffffffff168152602001908152602001600020546040516107e49190611401565b60405180910390a1565b600081565b816064346108019190611704565b6005548261080f9190611704565b1461081957600080fd5b600160045461082891906115f3565b60048190555060006003600060045481526020019081526020016000209050600454816000018190555083816001018190555060008160020181905550338160040160006101000a81548173ffffffffffffffffffffffffffffffffffffffff021916908373ffffffffffffffffffffffffffffffffffffffff160217905550828160050160006101000a81548173ffffffffffffffffffffffffffffffffffffffff021916908373ffffffffffffffffffffffffffffffffffffffff16021790555060008160070160006101000a81548160ff021916908360028111156109135761091261130c565b5b021790555034816003018190555080600360006004548152602001908152602001600020600082015481600001556001820154816001015560028201548160020155600382015481600301556004820160009054906101000a900473ffffffffffffffffffffffffffffffffffffffff168160040160006101000a81548173ffffffffffffffffffffffffffffffffffffffff021916908373ffffffffffffffffffffffffffffffffffffffff1602179055506005820160009054906101000a900473ffffffffffffffffffffffffffffffffffffffff168160050160006101000a81548173ffffffffffffffffffffffffffffffffffffffff021916908373ffffffffffffffffffffffffffffffffffffffff160217905550600682015481600601556007820160009054906101000a900460ff168160070160006101000a81548160ff02191690836002811115610a6f57610a6e61130c565b5b02179055509050507fdd464ef0714b8e2c9e17a85262fec4828985af1809cb31d22e902420b1a45c128160000154826001015483600301548460040160009054906101000a900473ffffffffffffffffffffffffffffffffffffffff168560050160009054906101000a900473ffffffffffffffffffffffffffffffffffffffff16604051610b029594939291906117a5565b60405180910390a150505050565b60045481565b6040518060400160405280600381526020017f445443000000000000000000000000000000000000000000000000000000000081525081565b6000601490506000803373ffffffffffffffffffffffffffffffffffffffff1673ffffffffffffffffffffffffffffffffffffffff16815260200190815260200160002054811015610ba057600080fd5b610bf1816000803373ffffffffffffffffffffffffffffffffffffffff1673ffffffffffffffffffffffffffffffffffffffff1681526020019081526020016000205461106e90919063ffffffff16565b6000803373ffffffffffffffffffffffffffffffffffffffff1673ffffffffffffffffffffffffffffffffffffffff1681526020019081526020016000208190555080600254610c4191906117f8565b6002819055507fdb8a5ca3ffac31623a1e8a6390ac397031e17cf1335aae2088619ff47d91102a30604051610c76919061182c565b60405180910390a150565b826000806002811115610c9757610c9661130c565b5b6003600084815260200190815260200160002060070160009054906101000a900460ff166002811115610ccd57610ccc61130c565b5b14610cd757600080fd5b8484843373ffffffffffffffffffffffffffffffffffffffff166003600085815260200190815260200160002060040160009054906101000a900473ffffffffffffffffffffffffffffffffffffffff1673ffffffffffffffffffffffffffffffffffffffff1614610d4857600080fd5b600080600090505b83839050811015610de45781848483818110610d6f57610d6e611847565b5b90506040020160200135858584818110610d8c57610d8b611847565b5b9050604002016000016020810190610da49190611876565b604051602001610db693929190611690565b6040516020818303038152906040528051906020012060001c91508080610ddc906118a3565b915050610d50565b5060036000858152602001908152602001600020600601548114610e0757600080fd5b6000600360008b8152602001908152602001600020905060005b89899050811015610ecc57898982818110610e3f57610e3e611847565b5b9050604002016000016020810190610e579190611876565b73ffffffffffffffffffffffffffffffffffffffff166108fc8b8b84818110610e8357610e82611847565b5b905060400201602001359081150290604051600060405180830381858888f19350505050158015610eb8573d6000803e3d6000fd5b508080610ec4906118a3565b915050610e21565b508060040160009054906101000a900473ffffffffffffffffffffffffffffffffffffffff1673ffffffffffffffffffffffffffffffffffffffff166108fc82600301549081150290604051600060405180830381858888f19350505050158015610f3b573d6000803e3d6000fd5b50610f47816002611001565b50505050505050505050565b6000600160008473ffffffffffffffffffffffffffffffffffffffff1673ffffffffffffffffffffffffffffffffffffffff16815260200190815260200160002060008373ffffffffffffffffffffffffffffffffffffffff1673ffffffffffffffffffffffffffffffffffffffff16815260200190815260200160002054905092915050565b600082821115610fed57610fec6118eb565b5b8183610ff991906117f8565b905092915050565b808260070160006101000a81548160ff021916908360028111156110285761102761130c565b5b02179055507f4385d908f4912090c91def05ee37beafbc0e6df1d57f4a32396d602ebbce93a082600001548260405161106292919061191a565b60405180910390a15050565b600080828461107d91906115f3565b9050838110156110905761108f6118eb565b5b8091505092915050565b600081519050919050565b600082825260208201905092915050565b60005b838110156110d45780820151818401526020810190506110b9565b60008484015250505050565b6000601f19601f8301169050919050565b60006110fc8261109a565b61110681856110a5565b93506111168185602086016110b6565b61111f816110e0565b840191505092915050565b6000602082019050818103600083015261114481846110f1565b905092915050565b600080fd5b600080fd5b600073ffffffffffffffffffffffffffffffffffffffff82169050919050565b600061118182611156565b9050919050565b61119181611176565b811461119c57600080fd5b50565b6000813590506111ae81611188565b92915050565b6000819050919050565b6111c7816111b4565b81146111d257600080fd5b50565b6000813590506111e4816111be565b92915050565b600080604083850312156112015761120061114c565b5b600061120f8582860161119f565b9250506020611220858286016111d5565b9150509250929050565b60008115159050919050565b61123f8161122a565b82525050565b600060208201905061125a6000830184611236565b92915050565b600080604083850312156112775761127661114c565b5b6000611285858286016111d5565b9250506020611296858286016111d5565b9150509250929050565b6000602082840312156112b6576112b561114c565b5b60006112c4848285016111d5565b91505092915050565b6112d6816111b4565b82525050565b6112e581611176565b82525050565b60006112f682611156565b9050919050565b611306816112eb565b82525050565b7f4e487b7100000000000000000000000000000000000000000000000000000000600052602160045260246000fd5b6003811061134c5761134b61130c565b5b50565b600081905061135d8261133b565b919050565b600061136d8261134f565b9050919050565b61137d81611362565b82525050565b600061010082019050611399600083018b6112cd565b6113a6602083018a6112cd565b6113b360408301896112cd565b6113c060608301886112cd565b6113cd60808301876112dc565b6113da60a08301866112fd565b6113e760c08301856112cd565b6113f460e0830184611374565b9998505050505050505050565b600060208201905061141660008301846112cd565b92915050565b600060ff82169050919050565b6114328161141c565b82525050565b600060208201905061144d6000830184611429565b92915050565b61145c816112eb565b811461146757600080fd5b50565b60008135905061147981611453565b92915050565b600080604083850312156114965761149561114c565b5b60006114a4858286016111d5565b92505060206114b58582860161146a565b9150509250929050565b600080fd5b600080fd5b600080fd5b60008083601f8401126114e4576114e36114bf565b5b8235905067ffffffffffffffff811115611501576115006114c4565b5b60208301915083604082028301111561151d5761151c6114c9565b5b9250929050565b60008060006040848603121561153d5761153c61114c565b5b600061154b868287016111d5565b935050602084013567ffffffffffffffff81111561156c5761156b611151565b5b611578868287016114ce565b92509250509250925092565b6000806040838503121561159b5761159a61114c565b5b60006115a98582860161119f565b92505060206115ba8582860161119f565b9150509250929050565b7f4e487b7100000000000000000000000000000000000000000000000000000000600052601160045260246000fd5b60006115fe826111b4565b9150611609836111b4565b9250828201905080821115611621576116206115c4565b5b92915050565b6000819050919050565b61164261163d826111b4565b611627565b82525050565b60008160601b9050919050565b600061166082611648565b9050919050565b600061167282611655565b9050919050565b61168a61168582611176565b611667565b82525050565b600061169c8286611631565b6020820191506116ac8285611631565b6020820191506116bc8284611679565b601482019150819050949350505050565b60006060820190506116e260008301866112cd565b6116ef60208301856112dc565b6116fc60408301846112cd565b949350505050565b600061170f826111b4565b915061171a836111b4565b9250828202611728816111b4565b9150828204841483151761173f5761173e6115c4565b5b5092915050565b6000819050919050565b600061176b61176661176184611156565b611746565b611156565b9050919050565b600061177d82611750565b9050919050565b600061178f82611772565b9050919050565b61179f81611784565b82525050565b600060a0820190506117ba60008301886112cd565b6117c760208301876112cd565b6117d460408301866112cd565b6117e160608301856112dc565b6117ee6080830184611796565b9695505050505050565b6000611803826111b4565b915061180e836111b4565b9250828203905081811115611826576118256115c4565b5b92915050565b600060208201905061184160008301846112dc565b92915050565b7f4e487b7100000000000000000000000000000000000000000000000000000000600052603260045260246000fd5b60006020828403121561188c5761188b61114c565b5b600061189a8482850161119f565b91505092915050565b60006118ae826111b4565b91507fffffffffffffffffffffffffffffffffffffffffffffffffffffffffffffffff82036118e0576118df6115c4565b5b600182019050919050565b7f4e487b7100000000000000000000000000000000000000000000000000000000600052600160045260246000fd5b600060408201905061192f60008301856112cd565b61193c6020830184611374565b939250505056fea26469706673582212201789027205262cdcedd9221f90fe6013412591ecad1c47378eb80dd32aec0b7064736f6c63430008110033",
  "immutableReferences": {},
  "source": "//SPDX-License-Identifier: UNLICENSED\r\npragma solidity 0.8.17;\r\n\r\ncontract Donations {\r\n    \r\n    enum Status {OPEN, CLOSED, EXPIRED}\r\n    string public constant name = \"MyToken\";\r\n    string public constant symbol = \"DTC\";\r\n    uint8 public constant decimals = 0;  \r\n\r\n    mapping(address => uint256) balances;\r\n\r\n    mapping(address => mapping (address => uint256)) allowed;\r\n    \r\n    uint256 totalSupply_;\r\n\r\n    using SafeMath for uint256;\r\n\r\n    struct Campaign {\r\n        uint id;\r\n        uint target;\r\n        uint fundsRaised;\r\n        uint deposit;\r\n        address createdBy;\r\n        address payable vendor;\r\n        uint donationsHash;\r\n        Status status;\r\n    }\r\n\r\n    struct Donor{\r\n        address donorAddress;\r\n        uint donatedAmount;\r\n    }\r\n\r\n    mapping(uint => Campaign) public campaigns;\r\n    uint public counter;\r\n    uint public percentToDeposit;\r\n    //address receiver;\r\n    constructor (uint percentToDepositValue,uint256 total) {\r\n        counter = 0;\r\n        percentToDeposit = percentToDepositValue;\r\n        totalSupply_ = total;\r\n\t    balances[msg.sender] = totalSupply_;\r\n    }  \r\n\r\n    //event Donation(uint campaignId, address _from, uint _value);\r\n    event Transition(uint campaignId, Status status);\r\n    event CreateCampaign(uint campaignId, uint target, uint deposit, address createdBy, address vendor);\r\n    event Approval(address indexed tokenOwner, address indexed spender, uint tokens);\r\n    event Donation(uint campaignId,address from, uint numTokens);\r\n    event TransferToken(address to_);\r\n    event GetBalance(uint numTokens);\r\n    //event Transfer(address indexed from, address indexed to, uint tokens);\r\n    \r\n\r\n    modifier validTransition(uint campaignId, Status status) {\r\n        require(campaigns[campaignId].status == status);\r\n        _;\r\n    }\r\n\r\n    modifier validCreateCampaign(uint amountRequired) {\r\n        require(amountRequired*percentToDeposit == msg.value*100);\r\n        _;\r\n    }\r\n\r\n    modifier validDonation(uint campaignId) {\r\n        require(campaigns[campaignId].fundsRaised + msg.value <= campaigns[campaignId].target);\r\n        _;\r\n    }\r\n\r\n    modifier validExpireCampaign(uint campaignId, Donor[] calldata donors) {\r\n        require(campaigns[campaignId].createdBy == msg.sender);\r\n        uint hashValue;\r\n        for (uint i=0;i<donors.length;i++){\r\n            hashValue = uint(keccak256(abi.encodePacked(hashValue,donors[i].donatedAmount,donors[i].donorAddress)));\r\n        }\r\n        require(hashValue == campaigns[campaignId].donationsHash);\r\n        _;\r\n    }\r\n\r\n    //ERC20 functions\r\n     function totalSupply() public view returns (uint256) {\r\n\treturn totalSupply_;\r\n    }\r\n    \r\n    function DtcBalance() public {\r\n        emit GetBalance(balances[msg.sender]);\r\n        //return balances[account];\r\n    }\r\n\r\n    function donate(uint campaignId, uint numTokens) public payable {\r\n        require(numTokens <= balances[msg.sender]);\r\n        Campaign storage campaign = campaigns[campaignId];\r\n        campaign.fundsRaised += numTokens;\r\n        balances[msg.sender] = balances[msg.sender].sub(numTokens);\r\n        campaign.donationsHash = uint(keccak256(abi.encodePacked(campaign.donationsHash,numTokens,msg.sender)));\r\n        emit Donation(campaignId,msg.sender, numTokens);\r\n        if (campaign.fundsRaised == campaign.target){\r\n            campaign.vendor.transfer(campaign.target);\r\n            payable(campaign.createdBy).transfer(campaign.deposit);\r\n            closeCampaign(campaign,Status.CLOSED);\r\n        }\r\n    }\r\n\r\n    function transfertoken() public payable {\r\n        uint numTokens=20;\r\n        require(numTokens >= balances[msg.sender]);\r\n        balances[msg.sender] = balances[msg.sender].add(numTokens);\r\n        totalSupply_=totalSupply_-numTokens;\r\n        emit TransferToken(address(this));\r\n        //return true;\r\n    }\r\n\r\n    function approve(address delegate, uint numTokens) public returns (bool) {\r\n        allowed[msg.sender][delegate] = numTokens;\r\n        emit Approval(msg.sender, delegate, numTokens);\r\n        return true;\r\n    }\r\n\r\n    function allowance(address owner, address delegate) public view returns (uint) {\r\n        return allowed[owner][delegate];\r\n    }\r\n\r\n    // function transferFrom(address owner, address buyer, uint numTokens) public returns (bool) {\r\n    //     require(numTokens <= balances[owner]);    \r\n    //     require(numTokens <= allowed[owner][msg.sender]);\r\n    \r\n    //     balances[owner] = balances[owner].sub(numTokens);\r\n    //     allowed[owner][msg.sender] = allowed[owner][msg.sender].sub(numTokens);\r\n    //     balances[buyer] = balances[buyer].add(numTokens);\r\n    //     emit Transfer(owner, buyer, numTokens);\r\n        \r\n    //     return true;\r\n    // }\r\n\r\n\r\n    //Internal Functions\r\n\r\n    function createCampaign(uint amountRequired, address payable vendor) public payable validCreateCampaign(amountRequired) {\r\n        counter = counter + 1;\r\n        Campaign storage campaign = campaigns[counter];\r\n        campaign.id = counter;\r\n        campaign.target = amountRequired;            \r\n        campaign.fundsRaised = 0;\r\n        campaign.createdBy = msg.sender;\r\n        campaign.vendor = vendor;\r\n        campaign.status = Status.OPEN;\r\n        campaign.deposit = msg.value;\r\n        campaigns[counter] = campaign;\r\n        emit CreateCampaign(campaign.id,campaign.target,campaign.deposit,campaign.createdBy,campaign.vendor);\r\n    }\r\n\r\n    // function donate(uint campaignId) public payable validTransition(campaignId, Status.OPEN) validDonation(campaignId) {\r\n    //     Campaign storage campaign = campaigns[campaignId];\r\n    //     campaign.fundsRaised += msg.value;\r\n\r\n    //     campaign.donationsHash = uint(keccak256(abi.encodePacked(campaign.donationsHash,msg.value,msg.sender)));\r\n    //     emit Donation(campaignId, msg.sender, msg.value);\r\n\r\n    //     if (campaign.fundsRaised == campaign.target){\r\n    //         campaign.vendor.transfer(campaign.target);\r\n    //         payable(campaign.createdBy).transfer(campaign.deposit);\r\n    //         closeCampaign(campaign,Status.CLOSED);\r\n    //     }\r\n    // }\r\n\r\n    function expireCampaign(uint campaignId, Donor[] calldata donors) public validTransition(campaignId,Status.OPEN) validExpireCampaign(campaignId,donors) {\r\n        Campaign storage campaign = campaigns[campaignId];\r\n        for (uint i=0;i<donors.length;i++){\r\n            payable(donors[i].donorAddress).transfer(donors[i].donatedAmount);\r\n        }\r\n        payable(campaign.createdBy).transfer(campaign.deposit);\r\n        closeCampaign(campaign, Status.EXPIRED);\r\n    }\r\n\r\n    function closeCampaign(Campaign storage campaign, Status status) private {\r\n        campaign.status = status;\r\n        emit Transition(campaign.id, status);\r\n    }\r\n}\r\n\r\nlibrary SafeMath { \r\n    function sub(uint256 a, uint256 b) internal pure returns (uint256) {\r\n      assert(b <= a);\r\n      return a - b;\r\n    }\r\n    \r\n    function add(uint256 a, uint256 b) internal pure returns (uint256) {\r\n      uint256 c = a + b;\r\n      assert(c >= a);\r\n      return c;\r\n    }\r\n}\r\n",
  "sourcePath": "/home/eagle/MS/Courses/Blockchain/BlockchainProject/donation-contract/contracts/Donations.sol",
  "compiler": {
    "name": "solc",
    "version": "0.8.17+commit.8df45f5f.Emscripten.clang"
  },
  "schemaVersion": "3.4.10",
  "updatedAt": "2022-12-04T16:37:04.663Z",
  "networkType": "ethereum",
  "devdoc": {
    "kind": "dev",
    "methods": {},
    "version": 1
  },
  "userdoc": {
    "kind": "user",
    "methods": {},
    "version": 1
  }
}